{"contracts/Implementation.sol":{"ImplementationV1":{"abi":[{"anonymous":false,"inputs":[{"indexed":false,"internalType":"int256","name":"newValue","type":"int256"}],"name":"TotalValueChanged","type":"event"},{"inputs":[{"internalType":"int256","name":"_num1","type":"int256"},{"internalType":"int256","name":"_num2","type":"int256"}],"name":"sum","outputs":[],"stateMutability":"nonpayable","type":"function"},{"inputs":[],"name":"totalValue","outputs":[{"internalType":"int256","name":"","type":"int256"}],"stateMutability":"view","type":"function"}],"evm":{"bytecode":{"linkReferences":{},"object":"6080604052348015600f57600080fd5b506102978061001f6000396000f3fe608060405234801561001057600080fd5b50600436106100365760003560e01c80639967062d1461003b578063d4c3eea014610057575b600080fd5b61005560048036038101906100509190610184565b610075565b005b61005f6100cb565b60405161006c91906101d3565b60405180910390f35b6100898183610084919061021d565b6100da565b7fb2c7e32a7456258260ed4df8e5b860d6198099383c94b274021bfd9a6f7ac87a6100b2610107565b6040516100bf91906101d3565b60405180910390a15050565b60006100d5610107565b905090565b6101047f7143077388da7263f151574bb8b431587ba155ce26e1a98a058a9a5b7c458d3b82610137565b50565b60006101327f7143077388da7263f151574bb8b431587ba155ce26e1a98a058a9a5b7c458d3b61013e565b905090565b8082555050565b600081549050919050565b600080fd5b6000819050919050565b6101618161014e565b811461016c57600080fd5b50565b60008135905061017e81610158565b92915050565b6000806040838503121561019b5761019a610149565b5b60006101a98582860161016f565b92505060206101ba8582860161016f565b9150509250929050565b6101cd8161014e565b82525050565b60006020820190506101e860008301846101c4565b92915050565b7f4e487b7100000000000000000000000000000000000000000000000000000000600052601160045260246000fd5b60006102288261014e565b91506102338361014e565b92508282019050828112156000831216838212600084121516171561025b5761025a6101ee565b5b9291505056fea26469706673582212209642f8b0c443212e8c3141ebc950084cfc4121b0f430f4a796dcde728b59106364736f6c634300081c0033","opcodes":"PUSH1 0x80 PUSH1 0x40 MSTORE CALLVALUE DUP1 ISZERO PUSH1 0xF JUMPI PUSH1 0x0 DUP1 REVERT JUMPDEST POP PUSH2 0x297 DUP1 PUSH2 0x1F PUSH1 0x0 CODECOPY PUSH1 0x0 RETURN INVALID PUSH1 0x80 PUSH1 0x40 MSTORE CALLVALUE DUP1 ISZERO PUSH2 0x10 JUMPI PUSH1 0x0 DUP1 REVERT JUMPDEST POP PUSH1 0x4 CALLDATASIZE LT PUSH2 0x36 JUMPI PUSH1 0x0 CALLDATALOAD PUSH1 0xE0 SHR DUP1 PUSH4 0x9967062D EQ PUSH2 0x3B JUMPI DUP1 PUSH4 0xD4C3EEA0 EQ PUSH2 0x57 JUMPI JUMPDEST PUSH1 0x0 DUP1 REVERT JUMPDEST PUSH2 0x55 PUSH1 0x4 DUP1 CALLDATASIZE SUB DUP2 ADD SWAP1 PUSH2 0x50 SWAP2 SWAP1 PUSH2 0x184 JUMP JUMPDEST PUSH2 0x75 JUMP JUMPDEST STOP JUMPDEST PUSH2 0x5F PUSH2 0xCB JUMP JUMPDEST PUSH1 0x40 MLOAD PUSH2 0x6C SWAP2 SWAP1 PUSH2 0x1D3 JUMP JUMPDEST PUSH1 0x40 MLOAD DUP1 SWAP2 SUB SWAP1 RETURN JUMPDEST PUSH2 0x89 DUP2 DUP4 PUSH2 0x84 SWAP2 SWAP1 PUSH2 0x21D JUMP JUMPDEST PUSH2 0xDA JUMP JUMPDEST PUSH32 0xB2C7E32A7456258260ED4DF8E5B860D6198099383C94B274021BFD9A6F7AC87A PUSH2 0xB2 PUSH2 0x107 JUMP JUMPDEST PUSH1 0x40 MLOAD PUSH2 0xBF SWAP2 SWAP1 PUSH2 0x1D3 JUMP JUMPDEST PUSH1 0x40 MLOAD DUP1 SWAP2 SUB SWAP1 LOG1 POP POP JUMP JUMPDEST PUSH1 0x0 PUSH2 0xD5 PUSH2 0x107 JUMP JUMPDEST SWAP1 POP SWAP1 JUMP JUMPDEST PUSH2 0x104 PUSH32 0x7143077388DA7263F151574BB8B431587BA155CE26E1A98A058A9A5B7C458D3B DUP3 PUSH2 0x137 JUMP JUMPDEST POP JUMP JUMPDEST PUSH1 0x0 PUSH2 0x132 PUSH32 0x7143077388DA7263F151574BB8B431587BA155CE26E1A98A058A9A5B7C458D3B PUSH2 0x13E JUMP JUMPDEST SWAP1 POP SWAP1 JUMP JUMPDEST DUP1 DUP3 SSTORE POP POP JUMP JUMPDEST PUSH1 0x0 DUP2 SLOAD SWAP1 POP SWAP2 SWAP1 POP JUMP JUMPDEST PUSH1 0x0 DUP1 REVERT JUMPDEST PUSH1 0x0 DUP2 SWAP1 POP SWAP2 SWAP1 POP JUMP JUMPDEST PUSH2 0x161 DUP2 PUSH2 0x14E JUMP JUMPDEST DUP2 EQ PUSH2 0x16C JUMPI PUSH1 0x0 DUP1 REVERT JUMPDEST POP JUMP JUMPDEST PUSH1 0x0 DUP2 CALLDATALOAD SWAP1 POP PUSH2 0x17E DUP2 PUSH2 0x158 JUMP JUMPDEST SWAP3 SWAP2 POP POP JUMP JUMPDEST PUSH1 0x0 DUP1 PUSH1 0x40 DUP4 DUP6 SUB SLT ISZERO PUSH2 0x19B JUMPI PUSH2 0x19A PUSH2 0x149 JUMP JUMPDEST JUMPDEST PUSH1 0x0 PUSH2 0x1A9 DUP6 DUP3 DUP7 ADD PUSH2 0x16F JUMP JUMPDEST SWAP3 POP POP PUSH1 0x20 PUSH2 0x1BA DUP6 DUP3 DUP7 ADD PUSH2 0x16F JUMP JUMPDEST SWAP2 POP POP SWAP3 POP SWAP3 SWAP1 POP JUMP JUMPDEST PUSH2 0x1CD DUP2 PUSH2 0x14E JUMP JUMPDEST DUP3 MSTORE POP POP JUMP JUMPDEST PUSH1 0x0 PUSH1 0x20 DUP3 ADD SWAP1 POP PUSH2 0x1E8 PUSH1 0x0 DUP4 ADD DUP5 PUSH2 0x1C4 JUMP JUMPDEST SWAP3 SWAP2 POP POP JUMP JUMPDEST PUSH32 0x4E487B7100000000000000000000000000000000000000000000000000000000 PUSH1 0x0 MSTORE PUSH1 0x11 PUSH1 0x4 MSTORE PUSH1 0x24 PUSH1 0x0 REVERT JUMPDEST PUSH1 0x0 PUSH2 0x228 DUP3 PUSH2 0x14E JUMP JUMPDEST SWAP2 POP PUSH2 0x233 DUP4 PUSH2 0x14E JUMP JUMPDEST SWAP3 POP DUP3 DUP3 ADD SWAP1 POP DUP3 DUP2 SLT ISZERO PUSH1 0x0 DUP4 SLT AND DUP4 DUP3 SLT PUSH1 0x0 DUP5 SLT ISZERO AND OR ISZERO PUSH2 0x25B JUMPI PUSH2 0x25A PUSH2 0x1EE JUMP JUMPDEST JUMPDEST SWAP3 SWAP2 POP POP JUMP INVALID LOG2 PUSH5 0x6970667358 0x22 SLT KECCAK256 SWAP7 TIMESTAMP 0xF8 0xB0 0xC4 NUMBER 0x21 0x2E DUP13 BALANCE COINBASE 0xEB 0xC9 POP ADDMOD 0x4C 0xFC COINBASE 0x21 0xB0 DELEGATECALL ADDRESS DELEGATECALL 0xA7 SWAP7 0xDC 0xDE PUSH19 0x8B59106364736F6C634300081C003300000000 "},"methodIdentifiers":{"sum(int256,int256)":"9967062d","totalValue()":"d4c3eea0"}}}}}