{"contracts/Implementation.sol":{"ImplementationV2":{"abi":[{"anonymous":false,"inputs":[{"indexed":false,"internalType":"int256","name":"newValue","type":"int256"}],"name":"TotalValueChanged","type":"event"},{"inputs":[{"internalType":"int256","name":"_num1","type":"int256"},{"internalType":"int256","name":"_num2","type":"int256"}],"name":"multiply","outputs":[],"stateMutability":"nonpayable","type":"function"},{"inputs":[{"internalType":"int256","name":"_num1","type":"int256"},{"internalType":"int256","name":"_num2","type":"int256"}],"name":"sum","outputs":[],"stateMutability":"nonpayable","type":"function"},{"inputs":[],"name":"totalValue","outputs":[{"internalType":"int256","name":"","type":"int256"}],"stateMutability":"view","type":"function"}],"evm":{"bytecode":{"linkReferences":{},"object":"6080604052348015600f57600080fd5b5061038c8061001f6000396000f3fe608060405234801561001057600080fd5b50600436106100415760003560e01c80633c4308a8146100465780639967062d14610062578063d4c3eea01461007e575b600080fd5b610060600480360381019061005b9190610201565b61009c565b005b61007c60048036038101906100779190610201565b6100f2565b005b610086610148565b6040516100939190610250565b60405180910390f35b6100b081836100ab919061029a565b610157565b7fb2c7e32a7456258260ed4df8e5b860d6198099383c94b274021bfd9a6f7ac87a6100d9610184565b6040516100e69190610250565b60405180910390a15050565b61010681836101019190610312565b610157565b7fb2c7e32a7456258260ed4df8e5b860d6198099383c94b274021bfd9a6f7ac87a61012f610184565b60405161013c9190610250565b60405180910390a15050565b6000610152610184565b905090565b6101817f7143077388da7263f151574bb8b431587ba155ce26e1a98a058a9a5b7c458d3b826101b4565b50565b60006101af7f7143077388da7263f151574bb8b431587ba155ce26e1a98a058a9a5b7c458d3b6101bb565b905090565b8082555050565b600081549050919050565b600080fd5b6000819050919050565b6101de816101cb565b81146101e957600080fd5b50565b6000813590506101fb816101d5565b92915050565b60008060408385031215610218576102176101c6565b5b6000610226858286016101ec565b9250506020610237858286016101ec565b9150509250929050565b61024a816101cb565b82525050565b60006020820190506102656000830184610241565b92915050565b7f4e487b7100000000000000000000000000000000000000000000000000000000600052601160045260246000fd5b60006102a5826101cb565b91506102b0836101cb565b92508282026102be816101cb565b91507f800000000000000000000000000000000000000000000000000000000000000084146000841216156102f6576102f561026b565b5b828205841483151761030b5761030a61026b565b5b5092915050565b600061031d826101cb565b9150610328836101cb565b9250828201905082811215600083121683821260008412151617156103505761034f61026b565b5b9291505056fea2646970667358221220dc77aca74bd3b9b9b2de5280cc321abaae4604f605f3ac520205123535ed9ea764736f6c634300081c0033","opcodes":"PUSH1 0x80 PUSH1 0x40 MSTORE CALLVALUE DUP1 ISZERO PUSH1 0xF JUMPI PUSH1 0x0 DUP1 REVERT JUMPDEST POP PUSH2 0x38C DUP1 PUSH2 0x1F PUSH1 0x0 CODECOPY PUSH1 0x0 RETURN INVALID PUSH1 0x80 PUSH1 0x40 MSTORE CALLVALUE DUP1 ISZERO PUSH2 0x10 JUMPI PUSH1 0x0 DUP1 REVERT JUMPDEST POP PUSH1 0x4 CALLDATASIZE LT PUSH2 0x41 JUMPI PUSH1 0x0 CALLDATALOAD PUSH1 0xE0 SHR DUP1 PUSH4 0x3C4308A8 EQ PUSH2 0x46 JUMPI DUP1 PUSH4 0x9967062D EQ PUSH2 0x62 JUMPI DUP1 PUSH4 0xD4C3EEA0 EQ PUSH2 0x7E JUMPI JUMPDEST PUSH1 0x0 DUP1 REVERT JUMPDEST PUSH2 0x60 PUSH1 0x4 DUP1 CALLDATASIZE SUB DUP2 ADD SWAP1 PUSH2 0x5B SWAP2 SWAP1 PUSH2 0x201 JUMP JUMPDEST PUSH2 0x9C JUMP JUMPDEST STOP JUMPDEST PUSH2 0x7C PUSH1 0x4 DUP1 CALLDATASIZE SUB DUP2 ADD SWAP1 PUSH2 0x77 SWAP2 SWAP1 PUSH2 0x201 JUMP JUMPDEST PUSH2 0xF2 JUMP JUMPDEST STOP JUMPDEST PUSH2 0x86 PUSH2 0x148 JUMP JUMPDEST PUSH1 0x40 MLOAD PUSH2 0x93 SWAP2 SWAP1 PUSH2 0x250 JUMP JUMPDEST PUSH1 0x40 MLOAD DUP1 SWAP2 SUB SWAP1 RETURN JUMPDEST PUSH2 0xB0 DUP2 DUP4 PUSH2 0xAB SWAP2 SWAP1 PUSH2 0x29A JUMP JUMPDEST PUSH2 0x157 JUMP JUMPDEST PUSH32 0xB2C7E32A7456258260ED4DF8E5B860D6198099383C94B274021BFD9A6F7AC87A PUSH2 0xD9 PUSH2 0x184 JUMP JUMPDEST PUSH1 0x40 MLOAD PUSH2 0xE6 SWAP2 SWAP1 PUSH2 0x250 JUMP JUMPDEST PUSH1 0x40 MLOAD DUP1 SWAP2 SUB SWAP1 LOG1 POP POP JUMP JUMPDEST PUSH2 0x106 DUP2 DUP4 PUSH2 0x101 SWAP2 SWAP1 PUSH2 0x312 JUMP JUMPDEST PUSH2 0x157 JUMP JUMPDEST PUSH32 0xB2C7E32A7456258260ED4DF8E5B860D6198099383C94B274021BFD9A6F7AC87A PUSH2 0x12F PUSH2 0x184 JUMP JUMPDEST PUSH1 0x40 MLOAD PUSH2 0x13C SWAP2 SWAP1 PUSH2 0x250 JUMP JUMPDEST PUSH1 0x40 MLOAD DUP1 SWAP2 SUB SWAP1 LOG1 POP POP JUMP JUMPDEST PUSH1 0x0 PUSH2 0x152 PUSH2 0x184 JUMP JUMPDEST SWAP1 POP SWAP1 JUMP JUMPDEST PUSH2 0x181 PUSH32 0x7143077388DA7263F151574BB8B431587BA155CE26E1A98A058A9A5B7C458D3B DUP3 PUSH2 0x1B4 JUMP JUMPDEST POP JUMP JUMPDEST PUSH1 0x0 PUSH2 0x1AF PUSH32 0x7143077388DA7263F151574BB8B431587BA155CE26E1A98A058A9A5B7C458D3B PUSH2 0x1BB JUMP JUMPDEST SWAP1 POP SWAP1 JUMP JUMPDEST DUP1 DUP3 SSTORE POP POP JUMP JUMPDEST PUSH1 0x0 DUP2 SLOAD SWAP1 POP SWAP2 SWAP1 POP JUMP JUMPDEST PUSH1 0x0 DUP1 REVERT JUMPDEST PUSH1 0x0 DUP2 SWAP1 POP SWAP2 SWAP1 POP JUMP JUMPDEST PUSH2 0x1DE DUP2 PUSH2 0x1CB JUMP JUMPDEST DUP2 EQ PUSH2 0x1E9 JUMPI PUSH1 0x0 DUP1 REVERT JUMPDEST POP JUMP JUMPDEST PUSH1 0x0 DUP2 CALLDATALOAD SWAP1 POP PUSH2 0x1FB DUP2 PUSH2 0x1D5 JUMP JUMPDEST SWAP3 SWAP2 POP POP JUMP JUMPDEST PUSH1 0x0 DUP1 PUSH1 0x40 DUP4 DUP6 SUB SLT ISZERO PUSH2 0x218 JUMPI PUSH2 0x217 PUSH2 0x1C6 JUMP JUMPDEST JUMPDEST PUSH1 0x0 PUSH2 0x226 DUP6 DUP3 DUP7 ADD PUSH2 0x1EC JUMP JUMPDEST SWAP3 POP POP PUSH1 0x20 PUSH2 0x237 DUP6 DUP3 DUP7 ADD PUSH2 0x1EC JUMP JUMPDEST SWAP2 POP POP SWAP3 POP SWAP3 SWAP1 POP JUMP JUMPDEST PUSH2 0x24A DUP2 PUSH2 0x1CB JUMP JUMPDEST DUP3 MSTORE POP POP JUMP JUMPDEST PUSH1 0x0 PUSH1 0x20 DUP3 ADD SWAP1 POP PUSH2 0x265 PUSH1 0x0 DUP4 ADD DUP5 PUSH2 0x241 JUMP JUMPDEST SWAP3 SWAP2 POP POP JUMP JUMPDEST PUSH32 0x4E487B7100000000000000000000000000000000000000000000000000000000 PUSH1 0x0 MSTORE PUSH1 0x11 PUSH1 0x4 MSTORE PUSH1 0x24 PUSH1 0x0 REVERT JUMPDEST PUSH1 0x0 PUSH2 0x2A5 DUP3 PUSH2 0x1CB JUMP JUMPDEST SWAP2 POP PUSH2 0x2B0 DUP4 PUSH2 0x1CB JUMP JUMPDEST SWAP3 POP DUP3 DUP3 MUL PUSH2 0x2BE DUP2 PUSH2 0x1CB JUMP JUMPDEST SWAP2 POP PUSH32 0x8000000000000000000000000000000000000000000000000000000000000000 DUP5 EQ PUSH1 0x0 DUP5 SLT AND ISZERO PUSH2 0x2F6 JUMPI PUSH2 0x2F5 PUSH2 0x26B JUMP JUMPDEST JUMPDEST DUP3 DUP3 SDIV DUP5 EQ DUP4 ISZERO OR PUSH2 0x30B JUMPI PUSH2 0x30A PUSH2 0x26B JUMP JUMPDEST JUMPDEST POP SWAP3 SWAP2 POP POP JUMP JUMPDEST PUSH1 0x0 PUSH2 0x31D DUP3 PUSH2 0x1CB JUMP JUMPDEST SWAP2 POP PUSH2 0x328 DUP4 PUSH2 0x1CB JUMP JUMPDEST SWAP3 POP DUP3 DUP3 ADD SWAP1 POP DUP3 DUP2 SLT ISZERO PUSH1 0x0 DUP4 SLT AND DUP4 DUP3 SLT PUSH1 0x0 DUP5 SLT ISZERO AND OR ISZERO PUSH2 0x350 JUMPI PUSH2 0x34F PUSH2 0x26B JUMP JUMPDEST JUMPDEST SWAP3 SWAP2 POP POP JUMP INVALID LOG2 PUSH5 0x6970667358 0x22 SLT KECCAK256 0xDC PUSH24 0xACA74BD3B9B9B2DE5280CC321ABAAE4604F605F3AC520205 SLT CALLDATALOAD CALLDATALOAD 0xED SWAP15 0xA7 PUSH5 0x736F6C6343 STOP ADDMOD SHR STOP CALLER "},"methodIdentifiers":{"multiply(int256,int256)":"3c4308a8","sum(int256,int256)":"9967062d","totalValue()":"d4c3eea0"}}}}}