{"contracts/Implementation.sol":{"ImplementationV3":{"abi":[{"anonymous":false,"inputs":[{"indexed":false,"internalType":"int256","name":"newValue","type":"int256"}],"name":"TotalValueChanged","type":"event"},{"inputs":[{"internalType":"bytes","name":"signature","type":"bytes"}],"name":"acknowledgeVersion","outputs":[],"stateMutability":"nonpayable","type":"function"},{"inputs":[{"internalType":"int256","name":"_num1","type":"int256"},{"internalType":"int256","name":"_num2","type":"int256"}],"name":"multiply","outputs":[],"stateMutability":"nonpayable","type":"function"},{"inputs":[{"internalType":"int256","name":"_num1","type":"int256"},{"internalType":"int256","name":"_num2","type":"int256"}],"name":"subtract","outputs":[],"stateMutability":"nonpayable","type":"function"},{"inputs":[{"internalType":"int256","name":"_num1","type":"int256"},{"internalType":"int256","name":"_num2","type":"int256"}],"name":"sum","outputs":[],"stateMutability":"nonpayable","type":"function"},{"inputs":[],"name":"totalValue","outputs":[{"internalType":"int256","name":"","type":"int256"}],"stateMutability":"view","type":"function"}],"evm":{"bytecode":{"linkReferences":{},"object":"6080604052348015600f57600080fd5b5061039e8061001f6000396000f3fe608060405234801561001057600080fd5b50600436106100575760003560e01c80632d57f1c61461005c5780633c4308a8146100715780639967062d14610084578063b93ea81214610097578063d4c3eea0146100aa575b600080fd5b61006f61006a3660046101f2565b6100c4565b005b61006f61007f3660046102ab565b61010d565b61006f6100923660046102ab565b61015d565b61006f6100a53660046102ab565b61016a565b6100b2610177565b60405190815260200160405180910390f35b6100d06298967f610186565b7fb2c7e32a7456258260ed4df8e5b860d6198099383c94b274021bfd9a6f7ac87a6100f96101b2565b60405190815260200160405180910390a150565b61011f61011a82846102e3565b610186565b7fb2c7e32a7456258260ed4df8e5b860d6198099383c94b274021bfd9a6f7ac87a6101486101b2565b60405190815260200160405180910390a15050565b61011f61011a8284610319565b61011f61011a8284610341565b60006101816101b2565b905090565b6101af7f7143077388da7263f151574bb8b431587ba155ce26e1a98a058a9a5b7c458d3b829055565b50565b60006101817f7143077388da7263f151574bb8b431587ba155ce26e1a98a058a9a5b7c458d3b5490565b634e487b7160e01b600052604160045260246000fd5b60006020828403121561020457600080fd5b813567ffffffffffffffff81111561021b57600080fd5b8201601f8101841361022c57600080fd5b803567ffffffffffffffff811115610246576102466101dc565b604051601f8201601f19908116603f0116810167ffffffffffffffff81118282101715610275576102756101dc565b60405281815282820160200186101561028d57600080fd5b81602084016020830137600091810160200191909152949350505050565b600080604083850312156102be57600080fd5b50508035926020909101359150565b634e487b7160e01b600052601160045260246000fd5b80820260008212600160ff1b841416156102ff576102ff6102cd565b8181058314821517610313576103136102cd565b92915050565b8082018281126000831280158216821582161715610339576103396102cd565b505092915050565b8181036000831280158383131683831282161715610361576103616102cd565b509291505056fea264697066735822122055dfa0ef5b9f806e31c9f4b37844372904454c7cf3f3f98d781f157104f703b664736f6c634300081c0033","opcodes":"PUSH1 0x80 PUSH1 0x40 MSTORE CALLVALUE DUP1 ISZERO PUSH1 0xF JUMPI PUSH1 0x0 DUP1 REVERT JUMPDEST POP PUSH2 0x39E DUP1 PUSH2 0x1F PUSH1 0x0 CODECOPY PUSH1 0x0 RETURN INVALID PUSH1 0x80 PUSH1 0x40 MSTORE CALLVALUE DUP1 ISZERO PUSH2 0x10 JUMPI PUSH1 0x0 DUP1 REVERT JUMPDEST POP PUSH1 0x4 CALLDATASIZE LT PUSH2 0x57 JUMPI PUSH1 0x0 CALLDATALOAD PUSH1 0xE0 SHR DUP1 PUSH4 0x2D57F1C6 EQ PUSH2 0x5C JUMPI DUP1 PUSH4 0x3C4308A8 EQ PUSH2 0x71 JUMPI DUP1 PUSH4 0x9967062D EQ PUSH2 0x84 JUMPI DUP1 PUSH4 0xB93EA812 EQ PUSH2 0x97 JUMPI DUP1 PUSH4 0xD4C3EEA0 EQ PUSH2 0xAA JUMPI JUMPDEST PUSH1 0x0 DUP1 REVERT JUMPDEST PUSH2 0x6F PUSH2 0x6A CALLDATASIZE PUSH1 0x4 PUSH2 0x1F2 JUMP JUMPDEST PUSH2 0xC4 JUMP JUMPDEST STOP JUMPDEST PUSH2 0x6F PUSH2 0x7F CALLDATASIZE PUSH1 0x4 PUSH2 0x2AB JUMP JUMPDEST PUSH2 0x10D JUMP JUMPDEST PUSH2 0x6F PUSH2 0x92 CALLDATASIZE PUSH1 0x4 PUSH2 0x2AB JUMP JUMPDEST PUSH2 0x15D JUMP JUMPDEST PUSH2 0x6F PUSH2 0xA5 CALLDATASIZE PUSH1 0x4 PUSH2 0x2AB JUMP JUMPDEST PUSH2 0x16A JUMP JUMPDEST PUSH2 0xB2 PUSH2 0x177 JUMP JUMPDEST PUSH1 0x40 MLOAD SWAP1 DUP2 MSTORE PUSH1 0x20 ADD PUSH1 0x40 MLOAD DUP1 SWAP2 SUB SWAP1 RETURN JUMPDEST PUSH2 0xD0 PUSH3 0x98967F PUSH2 0x186 JUMP JUMPDEST PUSH32 0xB2C7E32A7456258260ED4DF8E5B860D6198099383C94B274021BFD9A6F7AC87A PUSH2 0xF9 PUSH2 0x1B2 JUMP JUMPDEST PUSH1 0x40 MLOAD SWAP1 DUP2 MSTORE PUSH1 0x20 ADD PUSH1 0x40 MLOAD DUP1 SWAP2 SUB SWAP1 LOG1 POP JUMP JUMPDEST PUSH2 0x11F PUSH2 0x11A DUP3 DUP5 PUSH2 0x2E3 JUMP JUMPDEST PUSH2 0x186 JUMP JUMPDEST PUSH32 0xB2C7E32A7456258260ED4DF8E5B860D6198099383C94B274021BFD9A6F7AC87A PUSH2 0x148 PUSH2 0x1B2 JUMP JUMPDEST PUSH1 0x40 MLOAD SWAP1 DUP2 MSTORE PUSH1 0x20 ADD PUSH1 0x40 MLOAD DUP1 SWAP2 SUB SWAP1 LOG1 POP POP JUMP JUMPDEST PUSH2 0x11F PUSH2 0x11A DUP3 DUP5 PUSH2 0x319 JUMP JUMPDEST PUSH2 0x11F PUSH2 0x11A DUP3 DUP5 PUSH2 0x341 JUMP JUMPDEST PUSH1 0x0 PUSH2 0x181 PUSH2 0x1B2 JUMP JUMPDEST SWAP1 POP SWAP1 JUMP JUMPDEST PUSH2 0x1AF PUSH32 0x7143077388DA7263F151574BB8B431587BA155CE26E1A98A058A9A5B7C458D3B DUP3 SWAP1 SSTORE JUMP JUMPDEST POP JUMP JUMPDEST PUSH1 0x0 PUSH2 0x181 PUSH32 0x7143077388DA7263F151574BB8B431587BA155CE26E1A98A058A9A5B7C458D3B SLOAD SWAP1 JUMP JUMPDEST PUSH4 0x4E487B71 PUSH1 0xE0 SHL PUSH1 0x0 MSTORE PUSH1 0x41 PUSH1 0x4 MSTORE PUSH1 0x24 PUSH1 0x0 REVERT JUMPDEST PUSH1 0x0 PUSH1 0x20 DUP3 DUP5 SUB SLT ISZERO PUSH2 0x204 JUMPI PUSH1 0x0 DUP1 REVERT JUMPDEST DUP2 CALLDATALOAD PUSH8 0xFFFFFFFFFFFFFFFF DUP2 GT ISZERO PUSH2 0x21B JUMPI PUSH1 0x0 DUP1 REVERT JUMPDEST DUP3 ADD PUSH1 0x1F DUP2 ADD DUP5 SGT PUSH2 0x22C JUMPI PUSH1 0x0 DUP1 REVERT JUMPDEST DUP1 CALLDATALOAD PUSH8 0xFFFFFFFFFFFFFFFF DUP2 GT ISZERO PUSH2 0x246 JUMPI PUSH2 0x246 PUSH2 0x1DC JUMP JUMPDEST PUSH1 0x40 MLOAD PUSH1 0x1F DUP3 ADD PUSH1 0x1F NOT SWAP1 DUP2 AND PUSH1 0x3F ADD AND DUP2 ADD PUSH8 0xFFFFFFFFFFFFFFFF DUP2 GT DUP3 DUP3 LT OR ISZERO PUSH2 0x275 JUMPI PUSH2 0x275 PUSH2 0x1DC JUMP JUMPDEST PUSH1 0x40 MSTORE DUP2 DUP2 MSTORE DUP3 DUP3 ADD PUSH1 0x20 ADD DUP7 LT ISZERO PUSH2 0x28D JUMPI PUSH1 0x0 DUP1 REVERT JUMPDEST DUP2 PUSH1 0x20 DUP5 ADD PUSH1 0x20 DUP4 ADD CALLDATACOPY PUSH1 0x0 SWAP2 DUP2 ADD PUSH1 0x20 ADD SWAP2 SWAP1 SWAP2 MSTORE SWAP5 SWAP4 POP POP POP POP JUMP JUMPDEST PUSH1 0x0 DUP1 PUSH1 0x40 DUP4 DUP6 SUB SLT ISZERO PUSH2 0x2BE JUMPI PUSH1 0x0 DUP1 REVERT JUMPDEST POP POP DUP1 CALLDATALOAD SWAP3 PUSH1 0x20 SWAP1 SWAP2 ADD CALLDATALOAD SWAP2 POP JUMP JUMPDEST PUSH4 0x4E487B71 PUSH1 0xE0 SHL PUSH1 0x0 MSTORE PUSH1 0x11 PUSH1 0x4 MSTORE PUSH1 0x24 PUSH1 0x0 REVERT JUMPDEST DUP1 DUP3 MUL PUSH1 0x0 DUP3 SLT PUSH1 0x1 PUSH1 0xFF SHL DUP5 EQ AND ISZERO PUSH2 0x2FF JUMPI PUSH2 0x2FF PUSH2 0x2CD JUMP JUMPDEST DUP2 DUP2 SDIV DUP4 EQ DUP3 ISZERO OR PUSH2 0x313 JUMPI PUSH2 0x313 PUSH2 0x2CD JUMP JUMPDEST SWAP3 SWAP2 POP POP JUMP JUMPDEST DUP1 DUP3 ADD DUP3 DUP2 SLT PUSH1 0x0 DUP4 SLT DUP1 ISZERO DUP3 AND DUP3 ISZERO DUP3 AND OR ISZERO PUSH2 0x339 JUMPI PUSH2 0x339 PUSH2 0x2CD JUMP JUMPDEST POP POP SWAP3 SWAP2 POP POP JUMP JUMPDEST DUP2 DUP2 SUB PUSH1 0x0 DUP4 SLT DUP1 ISZERO DUP4 DUP4 SGT AND DUP4 DUP4 SLT DUP3 AND OR ISZERO PUSH2 0x361 JUMPI PUSH2 0x361 PUSH2 0x2CD JUMP JUMPDEST POP SWAP3 SWAP2 POP POP JUMP INVALID LOG2 PUSH5 0x6970667358 0x22 SLT KECCAK256 SSTORE 0xDF LOG0 0xEF JUMPDEST SWAP16 DUP1 PUSH15 0x31C9F4B37844372904454C7CF3F3F9 DUP14 PUSH25 0x1F157104F703B664736F6C634300081C003300000000000000 "},"methodIdentifiers":{"acknowledgeVersion(bytes)":"2d57f1c6","multiply(int256,int256)":"3c4308a8","subtract(int256,int256)":"b93ea812","sum(int256,int256)":"9967062d","totalValue()":"d4c3eea0"}}}}}