{"contracts/Implementation.sol":{"ImplementationV1":{"abi":[{"anonymous":false,"inputs":[{"indexed":false,"internalType":"int256","name":"newValue","type":"int256"}],"name":"TotalValueChanged","type":"event"},{"inputs":[{"internalType":"int256","name":"_num1","type":"int256"},{"internalType":"int256","name":"_num2","type":"int256"}],"name":"sum","outputs":[],"stateMutability":"nonpayable","type":"function"},{"inputs":[],"name":"totalValue","outputs":[{"internalType":"int256","name":"","type":"int256"}],"stateMutability":"view","type":"function"}],"evm":{"bytecode":{"linkReferences":{},"object":"6080604052348015600f57600080fd5b506101ad8061001f6000396000f3fe608060405234801561001057600080fd5b50600436106100365760003560e01c80639967062d1461003b578063d4c3eea014610050575b600080fd5b61004e61004936600461011f565b61006a565b005b6100586100ba565b60405190815260200160405180910390f35b61007c6100778284610141565b6100c9565b7fb2c7e32a7456258260ed4df8e5b860d6198099383c94b274021bfd9a6f7ac87a6100a56100f5565b60405190815260200160405180910390a15050565b60006100c46100f5565b905090565b6100f27f7143077388da7263f151574bb8b431587ba155ce26e1a98a058a9a5b7c458d3b829055565b50565b60006100c47f7143077388da7263f151574bb8b431587ba155ce26e1a98a058a9a5b7c458d3b5490565b6000806040838503121561013257600080fd5b50508035926020909101359150565b808201828112600083128015821682158216171561016f57634e487b7160e01b600052601160045260246000fd5b50509291505056fea2646970667358221220c02acbbbb85af2e8ea430d9c31ff552bce0d29c48a5dd503f3aa749d71c897cf64736f6c634300081c0033","opcodes":"PUSH1 0x80 PUSH1 0x40 MSTORE CALLVALUE DUP1 ISZERO PUSH1 0xF JUMPI PUSH1 0x0 DUP1 REVERT JUMPDEST POP PUSH2 0x1AD DUP1 PUSH2 0x1F PUSH1 0x0 CODECOPY PUSH1 0x0 RETURN INVALID PUSH1 0x80 PUSH1 0x40 MSTORE CALLVALUE DUP1 ISZERO PUSH2 0x10 JUMPI PUSH1 0x0 DUP1 REVERT JUMPDEST POP PUSH1 0x4 CALLDATASIZE LT PUSH2 0x36 JUMPI PUSH1 0x0 CALLDATALOAD PUSH1 0xE0 SHR DUP1 PUSH4 0x9967062D EQ PUSH2 0x3B JUMPI DUP1 PUSH4 0xD4C3EEA0 EQ PUSH2 0x50 JUMPI JUMPDEST PUSH1 0x0 DUP1 REVERT JUMPDEST PUSH2 0x4E PUSH2 0x49 CALLDATASIZE PUSH1 0x4 PUSH2 0x11F JUMP JUMPDEST PUSH2 0x6A JUMP JUMPDEST STOP JUMPDEST PUSH2 0x58 PUSH2 0xBA JUMP JUMPDEST PUSH1 0x40 MLOAD SWAP1 DUP2 MSTORE PUSH1 0x20 ADD PUSH1 0x40 MLOAD DUP1 SWAP2 SUB SWAP1 RETURN JUMPDEST PUSH2 0x7C PUSH2 0x77 DUP3 DUP5 PUSH2 0x141 JUMP JUMPDEST PUSH2 0xC9 JUMP JUMPDEST PUSH32 0xB2C7E32A7456258260ED4DF8E5B860D6198099383C94B274021BFD9A6F7AC87A PUSH2 0xA5 PUSH2 0xF5 JUMP JUMPDEST PUSH1 0x40 MLOAD SWAP1 DUP2 MSTORE PUSH1 0x20 ADD PUSH1 0x40 MLOAD DUP1 SWAP2 SUB SWAP1 LOG1 POP POP JUMP JUMPDEST PUSH1 0x0 PUSH2 0xC4 PUSH2 0xF5 JUMP JUMPDEST SWAP1 POP SWAP1 JUMP JUMPDEST PUSH2 0xF2 PUSH32 0x7143077388DA7263F151574BB8B431587BA155CE26E1A98A058A9A5B7C458D3B DUP3 SWAP1 SSTORE JUMP JUMPDEST POP JUMP JUMPDEST PUSH1 0x0 PUSH2 0xC4 PUSH32 0x7143077388DA7263F151574BB8B431587BA155CE26E1A98A058A9A5B7C458D3B SLOAD SWAP1 JUMP JUMPDEST PUSH1 0x0 DUP1 PUSH1 0x40 DUP4 DUP6 SUB SLT ISZERO PUSH2 0x132 JUMPI PUSH1 0x0 DUP1 REVERT JUMPDEST POP POP DUP1 CALLDATALOAD SWAP3 PUSH1 0x20 SWAP1 SWAP2 ADD CALLDATALOAD SWAP2 POP JUMP JUMPDEST DUP1 DUP3 ADD DUP3 DUP2 SLT PUSH1 0x0 DUP4 SLT DUP1 ISZERO DUP3 AND DUP3 ISZERO DUP3 AND OR ISZERO PUSH2 0x16F JUMPI PUSH4 0x4E487B71 PUSH1 0xE0 SHL PUSH1 0x0 MSTORE PUSH1 0x11 PUSH1 0x4 MSTORE PUSH1 0x24 PUSH1 0x0 REVERT JUMPDEST POP POP SWAP3 SWAP2 POP POP JUMP INVALID LOG2 PUSH5 0x6970667358 0x22 SLT KECCAK256 0xC0 0x2A 0xCB 0xBB 0xB8 GAS CALLCODE 0xE8 0xEA NUMBER 0xD SWAP13 BALANCE SELFDESTRUCT SSTORE 0x2B 0xCE 0xD 0x29 0xC4 DUP11 TSTORE 0xD5 SUB RETURN 0xAA PUSH21 0x9D71C897CF64736F6C634300081C00330000000000 "},"methodIdentifiers":{"sum(int256,int256)":"9967062d","totalValue()":"d4c3eea0"}}}}}