{"contracts/MyTransparentProxy.sol":{"MyTransparentProxy":{"abi":[{"inputs":[{"internalType":"address","name":"initialImplementation","type":"address"},{"internalType":"string","name":"name","type":"string"},{"internalType":"string","name":"version","type":"string"},{"internalType":"address","name":"owner","type":"address"}],"stateMutability":"nonpayable","type":"constructor"},{"inputs":[],"name":"ECDSAInvalidSignature","type":"error"},{"inputs":[{"internalType":"uint256","name":"length","type":"uint256"}],"name":"ECDSAInvalidSignatureLength","type":"error"},{"inputs":[{"internalType":"bytes32","name":"s","type":"bytes32"}],"name":"ECDSAInvalidSignatureS","type":"error"},{"inputs":[],"name":"InvalidShortString","type":"error"},{"inputs":[{"internalType":"address","name":"owner","type":"address"}],"name":"OwnableInvalidOwner","type":"error"},{"inputs":[{"internalType":"address","name":"account","type":"address"}],"name":"OwnableUnauthorizedAccount","type":"error"},{"inputs":[{"internalType":"string","name":"str","type":"string"}],"name":"StringTooLong","type":"error"},{"anonymous":false,"inputs":[],"name":"EIP712DomainChanged","type":"event"},{"anonymous":false,"inputs":[{"indexed":true,"internalType":"address","name":"previousOwner","type":"address"},{"indexed":true,"internalType":"address","name":"newOwner","type":"address"}],"name":"OwnershipTransferred","type":"event"},{"anonymous":false,"inputs":[{"indexed":true,"internalType":"address","name":"newImplementation","type":"address"},{"indexed":false,"internalType":"uint256","name":"newVersion","type":"uint256"}],"name":"Upgraded","type":"event"},{"anonymous":false,"inputs":[{"indexed":true,"internalType":"address","name":"user","type":"address"},{"indexed":false,"internalType":"uint256","name":"version","type":"uint256"}],"name":"VersionAcknowledged","type":"event"},{"stateMutability":"payable","type":"fallback"},{"inputs":[{"internalType":"bytes","name":"signature","type":"bytes"}],"name":"acknowledgeVersion","outputs":[],"stateMutability":"nonpayable","type":"function"},{"inputs":[],"name":"eip712Domain","outputs":[{"internalType":"bytes1","name":"fields","type":"bytes1"},{"internalType":"string","name":"name","type":"string"},{"internalType":"string","name":"version","type":"string"},{"internalType":"uint256","name":"chainId","type":"uint256"},{"internalType":"address","name":"verifyingContract","type":"address"},{"internalType":"bytes32","name":"salt","type":"bytes32"},{"internalType":"uint256[]","name":"extensions","type":"uint256[]"}],"stateMutability":"view","type":"function"},{"inputs":[],"name":"getCurrentVersion","outputs":[{"internalType":"uint256","name":"","type":"uint256"}],"stateMutability":"view","type":"function"},{"inputs":[{"internalType":"address","name":"user","type":"address"}],"name":"getUserAcknowledgedVersion","outputs":[{"internalType":"uint256","name":"","type":"uint256"}],"stateMutability":"view","type":"function"},{"inputs":[{"internalType":"uint256","name":"version","type":"uint256"}],"name":"getVersionToImplementation","outputs":[{"internalType":"address","name":"","type":"address"}],"stateMutability":"view","type":"function"},{"inputs":[],"name":"implementation","outputs":[{"internalType":"address","name":"","type":"address"}],"stateMutability":"view","type":"function"},{"inputs":[],"name":"owner","outputs":[{"internalType":"address","name":"","type":"address"}],"stateMutability":"view","type":"function"},{"inputs":[],"name":"renounceOwnership","outputs":[],"stateMutability":"nonpayable","type":"function"},{"inputs":[{"internalType":"address","name":"newOwner","type":"address"}],"name":"transferOwnership","outputs":[],"stateMutability":"nonpayable","type":"function"},{"inputs":[{"internalType":"address","name":"newImplementation","type":"address"}],"name":"upgradeTo","outputs":[],"stateMutability":"nonpayable","type":"function"},{"stateMutability":"payable","type":"receive"}],"evm":{"bytecode":{"linkReferences":{},"object":"61016060405234801561001157600080fd5b50604051611c6d380380611c6d83398101604081905261003091610436565b8282828282826001600160a01b03811661006557604051631e4fbdf760e01b8152600060048201526024015b60405180910390fd5b61006e81610144565b5061007a826001610194565b61012052610089816002610194565b61014052815160208084019190912060e052815190820120610100524660a05261011660e05161010051604080517f8b73c3c69bb8fe3d512ecc4cf759cc79239f7b179b0ffacaa9a75d522b39400f60208201529081019290925260608201524660808201523060a082015260009060c00160405160208183030381529060405280519060200120905090565b60805250503060c05261012960006101c7565b50505061013b846101e160201b60201c565b50505050610680565b600080546001600160a01b038381166001600160a01b0319831681178455604051919092169283917f8be0079c531659141344cd1fd0a4f28419497f9722a3daafe3b4186f6b6457e09190a35050565b60006020835110156101b0576101a9836102cd565b90506101c1565b816101bb848261054a565b5060ff90505b92915050565b6101de600080516020611c4d833981519152829055565b50565b6101e961030b565b6001600160a01b03811661023f5760405162461bcd60e51b815260206004820152601e60248201527f496e76616c696420696d706c656d656e746174696f6e20616464726573730000604482015260640161005c565b600061024961033a565b610254906001610608565b905061025f816101c7565b600081815260046020526040902080546001600160a01b0319166001600160a01b038416179055816001600160a01b03167f5887ab9161c3be2fe962b73e068a9f29082efb6daf2bfcbd3f064bc34d1ef1b7826040516102c191815260200190565b60405180910390a25050565b600080829050601f815111156102f8578260405163305a27a960e01b815260040161005c9190610629565b80516103038261065c565b179392505050565b6000546001600160a01b031633146103385760405163118cdaa760e01b815233600482015260240161005c565b565b6000610352600080516020611c4d8339815191525490565b905090565b80516001600160a01b038116811461036e57600080fd5b919050565b634e487b7160e01b600052604160045260246000fd5b60005b838110156103a457818101518382015260200161038c565b50506000910152565b600082601f8301126103be57600080fd5b81516001600160401b038111156103d7576103d7610373565b604051601f8201601f19908116603f011681016001600160401b038111828210171561040557610405610373565b60405281815283820160200185101561041d57600080fd5b61042e826020830160208701610389565b949350505050565b6000806000806080858703121561044c57600080fd5b61045585610357565b60208601519094506001600160401b0381111561047157600080fd5b61047d878288016103ad565b604087015190945090506001600160401b0381111561049b57600080fd5b6104a7878288016103ad565b9250506104b660608601610357565b905092959194509250565b600181811c908216806104d557607f821691505b6020821081036104f557634e487b7160e01b600052602260045260246000fd5b50919050565b601f82111561054557806000526020600020601f840160051c810160208510156105225750805b601f840160051c820191505b81811015610542576000815560010161052e565b50505b505050565b81516001600160401b0381111561056357610563610373565b6105778161057184546104c1565b846104fb565b6020601f8211600181146105ab57600083156105935750848201515b600019600385901b1c1916600184901b178455610542565b600084815260208120601f198516915b828110156105db57878501518255602094850194600190920191016105bb565b50848210156105f95786840151600019600387901b60f8161c191681555b50505050600190811b01905550565b808201808211156101c157634e487b7160e01b600052601160045260246000fd5b6020815260008251806020840152610648816040850160208701610389565b601f01601f19169190910160400192915050565b805160208083015191908110156104f55760001960209190910360031b1b16919050565b60805160a05160c05160e0516101005161012051610140516115736106da6000396000610b3401526000610b0701526000610e0e01526000610de601526000610d4101526000610d6b01526000610d9501526115736000f3fe6080604052600436106100955760003560e01c8063715018a611610059578063715018a61461026b57806384b0196e146102805780638da5cb5b146102a8578063f2fde38b146102c6578063fabec44a146102e65761019a565b80632d57f1c6146101ab5780633659cfe6146101cb5780633b70c9a0146101eb5780635c60da1b1461022857806367e294b21461023d5761019a565b3661019a576000546001600160a01b03165b6001600160a01b031633036101035760405162461bcd60e51b815260206004820152601f60248201527f4f776e65722063616e6e6f742063616c6c20746869732066756e6374696f6e0060448201526064015b60405180910390fd5b600061010d6102fb565b33600090815260036020526040902054909150811461018857600061013061032a565b60405160200161014091906110c3565b60405160208183030381529060405290508060405160200161016291906110df565b60408051601f198184030181529082905262461bcd60e51b82526100fa9160040161116b565b610198610193610455565b610462565b005b6000546001600160a01b03166100a7565b3480156101b757600080fd5b506101986101c636600461119b565b610486565b3480156101d757600080fd5b506101986101e6366004611254565b6105b6565b3480156101f757600080fd5b5061020b61020636600461127d565b610696565b6040516001600160a01b0390911681526020015b60405180910390f35b34801561023457600080fd5b5061020b6106b5565b34801561024957600080fd5b5061025d610258366004611254565b6106bf565b60405190815260200161021f565b34801561027757600080fd5b506101986106dd565b34801561028c57600080fd5b506102956106f1565b60405161021f9796959493929190611296565b3480156102b457600080fd5b506000546001600160a01b031661020b565b3480156102d257600080fd5b506101986102e1366004611254565b610737565b3480156102f257600080fd5b5061025d610775565b60006103257ffa612f219094dda999cf2ee00fb7b97ecb31d820fedbbaecb6aad712d0cac2c45490565b905090565b336000908152600360209081526040808320548352600490915281205460609190610395906001600160a01b03165b604051602001610381919060609190911b6bffffffffffffffffffffffff1916815260140190565b60405160208183030381529060405261077f565b6040516020016103a5919061132e565b604051602081830303815290604052905060006103e16103596103c66102fb565b6000908152600460205260409020546001600160a01b031690565b6040516020016103f1919061132e565b60408051601f198184030181529181523360009081526003602052205490915061041a9061091a565b8261042b6104266102fb565b61091a565b8360405160200161043f9493929190611383565b6040516020818303038152906040529250505090565b60006103256103c66102fb565b3660008037600080366000845af43d6000803e808015610481573d6000f35b3d6000fd5b6000546001600160a01b031633036104e05760405162461bcd60e51b815260206004820152601f60248201527f4f776e65722063616e6e6f742063616c6c20746869732066756e6374696f6e0060448201526064016100fa565b60006104ea6102fb565b33600090815260036020526040902054909150811161050e5761050e610193610455565b610521338261051b61032a565b856109ad565b6105665760405162461bcd60e51b8152602060048201526016602482015275125b9d985b1a59081858dadb9bdddb195919db595b9d60521b60448201526064016100fa565b3360008181526003602052604090819020839055517fb2750fb49563752ac33e16422b7de9722a51607e258f2fd22fb0c55a8804d8fa906105aa9084815260200190565b60405180910390a25050565b6105be610a5a565b6001600160a01b0381166106145760405162461bcd60e51b815260206004820152601e60248201527f496e76616c696420696d706c656d656e746174696f6e2061646472657373000060448201526064016100fa565b600061061e6102fb565b6106299060016114ad565b905061063481610a87565b600081815260046020526040902080546001600160a01b0319166001600160a01b038416179055816001600160a01b03167f5887ab9161c3be2fe962b73e068a9f29082efb6daf2bfcbd3f064bc34d1ef1b7826040516105aa91815260200190565b6000818152600460205260408120546001600160a01b03165b92915050565b6000610325610455565b6001600160a01b0381166000908152600360205260408120546106af565b6106e5610a5a565b6106ef6000610ab0565b565b600060608060008060006060610705610b00565b61070d610b2d565b60408051600080825260208201909252600f60f81b9b939a50919850469750309650945092509050565b61073f610a5a565b6001600160a01b03811661076957604051631e4fbdf760e01b8152600060048201526024016100fa565b61077281610ab0565b50565b60006103256102fb565b60408051808201909152601081526f181899199a1a9b1b9c1cb0b131b232b360811b60208201528151606091906000906107ba9060026114c0565b67ffffffffffffffff8111156107d2576107d2611185565b6040519080825280601f01601f1916602001820160405280156107fc576020820181803683370190505b50905060005b845181101561091257826004868381518110610820576108206114d7565b016020015182516001600160f81b031990911690911c60f81c908110610848576108486114d7565b01602001516001600160f81b031916826108638360026114c0565b81518110610873576108736114d7565b60200101906001600160f81b031916908160001a9053508285828151811061089d5761089d6114d7565b602091010151815160f89190911c600f169081106108bd576108bd6114d7565b01602001516001600160f81b031916826108d88360026114c0565b6108e39060016114ad565b815181106108f3576108f36114d7565b60200101906001600160f81b031916908160001a905350600101610802565b509392505050565b6060600061092783610b5a565b600101905060008167ffffffffffffffff81111561094757610947611185565b6040519080825280601f01601f191660200182016040528015610971576020820181803683370190505b5090508181016020015b600019016f181899199a1a9b1b9c1cb0b131b232b360811b600a86061a8153600a850494508461097b57509392505050565b6000807feacf654f9eb57c0fc9b51c946d3609e17608874f75f50d3caac0e72f3cac96c886868680519060200120604051602001610a0d94939291909384526001600160a01b039290921660208401526040830152606082015260800190565b6040516020818303038152906040528051906020012090506000610a3082610c32565b90506000610a3e8286610c5f565b6001600160a01b03908116908916149350505050949350505050565b6000546001600160a01b031633146106ef5760405163118cdaa760e01b81523360048201526024016100fa565b6107727ffa612f219094dda999cf2ee00fb7b97ecb31d820fedbbaecb6aad712d0cac2c4829055565b600080546001600160a01b038381166001600160a01b0319831681178455604051919092169283917f8be0079c531659141344cd1fd0a4f28419497f9722a3daafe3b4186f6b6457e09190a35050565b60606103257f00000000000000000000000000000000000000000000000000000000000000006001610c89565b60606103257f00000000000000000000000000000000000000000000000000000000000000006002610c89565b60008072184f03e93ff9f4daa797ed6e38ed64bf6a1f0160401b8310610b995772184f03e93ff9f4daa797ed6e38ed64bf6a1f0160401b830492506040015b6d04ee2d6d415b85acef81000000008310610bc5576d04ee2d6d415b85acef8100000000830492506020015b662386f26fc100008310610be357662386f26fc10000830492506010015b6305f5e1008310610bfb576305f5e100830492506008015b6127108310610c0f57612710830492506004015b60648310610c21576064830492506002015b600a83106106af5760010192915050565b60006106af610c3f610d34565b8360405161190160f01b8152600281019290925260228201526042902090565b600080600080610c6f8686610e5f565b925092509250610c7f8282610eac565b5090949350505050565b606060ff8314610ca357610c9c83610f69565b90506106af565b818054610caf906114ed565b80601f0160208091040260200160405190810160405280929190818152602001828054610cdb906114ed565b8015610d285780601f10610cfd57610100808354040283529160200191610d28565b820191906000526020600020905b815481529060010190602001808311610d0b57829003601f168201915b505050505090506106af565b6000306001600160a01b037f000000000000000000000000000000000000000000000000000000000000000016148015610d8d57507f000000000000000000000000000000000000000000000000000000000000000046145b15610db757507f000000000000000000000000000000000000000000000000000000000000000090565b610325604080517f8b73c3c69bb8fe3d512ecc4cf759cc79239f7b179b0ffacaa9a75d522b39400f60208201527f0000000000000000000000000000000000000000000000000000000000000000918101919091527f000000000000000000000000000000000000000000000000000000000000000060608201524660808201523060a082015260009060c00160405160208183030381529060405280519060200120905090565b60008060008351604103610e995760208401516040850151606086015160001a610e8b88828585610fa8565b955095509550505050610ea5565b50508151600091506002905b9250925092565b6000826003811115610ec057610ec0611527565b03610ec9575050565b6001826003811115610edd57610edd611527565b03610efb5760405163f645eedf60e01b815260040160405180910390fd5b6002826003811115610f0f57610f0f611527565b03610f305760405163fce698f760e01b8152600481018290526024016100fa565b6003826003811115610f4457610f44611527565b03610f65576040516335e2f38360e21b8152600481018290526024016100fa565b5050565b60606000610f7683611077565b604080516020808252818301909252919250600091906020820181803683375050509182525060208101929092525090565b600080807f7fffffffffffffffffffffffffffffff5d576e7357a4501ddfe92f46681b20a0841115610fe3575060009150600390508261106d565b604080516000808252602082018084528a905260ff891692820192909252606081018790526080810186905260019060a0016020604051602081039080840390855afa158015611037573d6000803e3d6000fd5b5050604051601f1901519150506001600160a01b0381166110635750600092506001915082905061106d565b9250600091508190505b9450945094915050565b600060ff8216601f8111156106af57604051632cd44ac360e21b815260040160405180910390fd5b60005b838110156110ba5781810151838201526020016110a2565b50506000910152565b600082516110d581846020870161109f565b9190910192915050565b7f4552524f525f434f44455f313a20506c656173652061636b6e6f776c656467658152710103a3432903732bb903b32b939b4b7b710960751b60208201526000825161113281603285016020870161109f565b9190910160320192915050565b6000815180845261115781602086016020860161109f565b601f01601f19169290920160200192915050565b60208152600061117e602083018461113f565b9392505050565b634e487b7160e01b600052604160045260246000fd5b6000602082840312156111ad57600080fd5b813567ffffffffffffffff8111156111c457600080fd5b8201601f810184136111d557600080fd5b803567ffffffffffffffff8111156111ef576111ef611185565b604051601f8201601f19908116603f0116810167ffffffffffffffff8111828210171561121e5761121e611185565b60405281815282820160200186101561123657600080fd5b81602084016020830137600091810160200191909152949350505050565b60006020828403121561126657600080fd5b81356001600160a01b038116811461117e57600080fd5b60006020828403121561128f57600080fd5b5035919050565b60ff60f81b8816815260e0602082015260006112b560e083018961113f565b82810360408401526112c7818961113f565b606084018890526001600160a01b038716608085015260a0840186905283810360c08501528451808252602080870193509091019060005b8181101561131d5783518352602093840193909201916001016112ff565b50909b9a5050505050505050505050565b7f2868747470733a2f2f65746865727363616e2e696f2f616464726573732f307881526000825161136681602085016020870161109f565b6523636f64652960d01b6020939091019283015250602601919050565b7f596f75206172652063757272656e746c79206f6e2076657273696f6e200000008152600085516113bb81601d850160208a0161109f565b600160fd1b601d9184019182015285516113dc81601e840160208a0161109f565b601d818301019150507f2e20546865206e65776573742076657273696f6e2069732076657273696f6e206001820152845161141e81602184016020890161109f565b600181830101915050600160fd1b6020820152835161144481602184016020880161109f565b7f2e20506c65617365207369676e2074686973206d65737361676520746f20636f6021929091019182015271373334b936903a3432903ab833b930b2329760711b60418201526053019695505050505050565b634e487b7160e01b600052601160045260246000fd5b808201808211156106af576106af611497565b80820281158282048414176106af576106af611497565b634e487b7160e01b600052603260045260246000fd5b600181811c9082168061150157607f821691505b60208210810361152157634e487b7160e01b600052602260045260246000fd5b50919050565b634e487b7160e01b600052602160045260246000fdfea2646970667358221220a1afbab7ad98f7fb38548c8b036fbdfc9131369ac07eecd61da564163218f12f64736f6c634300081c0033fa612f219094dda999cf2ee00fb7b97ecb31d820fedbbaecb6aad712d0cac2c4","opcodes":"PUSH2 0x160 PUSH1 0x40 MSTORE CALLVALUE DUP1 ISZERO PUSH2 0x11 JUMPI PUSH1 0x0 DUP1 REVERT JUMPDEST POP PUSH1 0x40 MLOAD PUSH2 0x1C6D CODESIZE SUB DUP1 PUSH2 0x1C6D DUP4 CODECOPY DUP2 ADD PUSH1 0x40 DUP2 SWAP1 MSTORE PUSH2 0x30 SWAP2 PUSH2 0x436 JUMP JUMPDEST DUP3 DUP3 DUP3 DUP3 DUP3 DUP3 PUSH1 0x1 PUSH1 0x1 PUSH1 0xA0 SHL SUB DUP2 AND PUSH2 0x65 JUMPI PUSH1 0x40 MLOAD PUSH4 0x1E4FBDF7 PUSH1 0xE0 SHL DUP2 MSTORE PUSH1 0x0 PUSH1 0x4 DUP3 ADD MSTORE PUSH1 0x24 ADD JUMPDEST PUSH1 0x40 MLOAD DUP1 SWAP2 SUB SWAP1 REVERT JUMPDEST PUSH2 0x6E DUP2 PUSH2 0x144 JUMP JUMPDEST POP PUSH2 0x7A DUP3 PUSH1 0x1 PUSH2 0x194 JUMP JUMPDEST PUSH2 0x120 MSTORE PUSH2 0x89 DUP2 PUSH1 0x2 PUSH2 0x194 JUMP JUMPDEST PUSH2 0x140 MSTORE DUP2 MLOAD PUSH1 0x20 DUP1 DUP5 ADD SWAP2 SWAP1 SWAP2 KECCAK256 PUSH1 0xE0 MSTORE DUP2 MLOAD SWAP1 DUP3 ADD KECCAK256 PUSH2 0x100 MSTORE CHAINID PUSH1 0xA0 MSTORE PUSH2 0x116 PUSH1 0xE0 MLOAD PUSH2 0x100 MLOAD PUSH1 0x40 DUP1 MLOAD PUSH32 0x8B73C3C69BB8FE3D512ECC4CF759CC79239F7B179B0FFACAA9A75D522B39400F PUSH1 0x20 DUP3 ADD MSTORE SWAP1 DUP2 ADD SWAP3 SWAP1 SWAP3 MSTORE PUSH1 0x60 DUP3 ADD MSTORE CHAINID PUSH1 0x80 DUP3 ADD MSTORE ADDRESS PUSH1 0xA0 DUP3 ADD MSTORE PUSH1 0x0 SWAP1 PUSH1 0xC0 ADD PUSH1 0x40 MLOAD PUSH1 0x20 DUP2 DUP4 SUB SUB DUP2 MSTORE SWAP1 PUSH1 0x40 MSTORE DUP1 MLOAD SWAP1 PUSH1 0x20 ADD KECCAK256 SWAP1 POP SWAP1 JUMP JUMPDEST PUSH1 0x80 MSTORE POP POP ADDRESS PUSH1 0xC0 MSTORE PUSH2 0x129 PUSH1 0x0 PUSH2 0x1C7 JUMP JUMPDEST POP POP POP PUSH2 0x13B DUP5 PUSH2 0x1E1 PUSH1 0x20 SHL PUSH1 0x20 SHR JUMP JUMPDEST POP POP POP POP PUSH2 0x680 JUMP JUMPDEST PUSH1 0x0 DUP1 SLOAD PUSH1 0x1 PUSH1 0x1 PUSH1 0xA0 SHL SUB DUP4 DUP2 AND PUSH1 0x1 PUSH1 0x1 PUSH1 0xA0 SHL SUB NOT DUP4 AND DUP2 OR DUP5 SSTORE PUSH1 0x40 MLOAD SWAP2 SWAP1 SWAP3 AND SWAP3 DUP4 SWAP2 PUSH32 0x8BE0079C531659141344CD1FD0A4F28419497F9722A3DAAFE3B4186F6B6457E0 SWAP2 SWAP1 LOG3 POP POP JUMP JUMPDEST PUSH1 0x0 PUSH1 0x20 DUP4 MLOAD LT ISZERO PUSH2 0x1B0 JUMPI PUSH2 0x1A9 DUP4 PUSH2 0x2CD JUMP JUMPDEST SWAP1 POP PUSH2 0x1C1 JUMP JUMPDEST DUP2 PUSH2 0x1BB DUP5 DUP3 PUSH2 0x54A JUMP JUMPDEST POP PUSH1 0xFF SWAP1 POP JUMPDEST SWAP3 SWAP2 POP POP JUMP JUMPDEST PUSH2 0x1DE PUSH1 0x0 DUP1 MLOAD PUSH1 0x20 PUSH2 0x1C4D DUP4 CODECOPY DUP2 MLOAD SWAP2 MSTORE DUP3 SWAP1 SSTORE JUMP JUMPDEST POP JUMP JUMPDEST PUSH2 0x1E9 PUSH2 0x30B JUMP JUMPDEST PUSH1 0x1 PUSH1 0x1 PUSH1 0xA0 SHL SUB DUP2 AND PUSH2 0x23F JUMPI PUSH1 0x40 MLOAD PUSH3 0x461BCD PUSH1 0xE5 SHL DUP2 MSTORE PUSH1 0x20 PUSH1 0x4 DUP3 ADD MSTORE PUSH1 0x1E PUSH1 0x24 DUP3 ADD MSTORE PUSH32 0x496E76616C696420696D706C656D656E746174696F6E20616464726573730000 PUSH1 0x44 DUP3 ADD MSTORE PUSH1 0x64 ADD PUSH2 0x5C JUMP JUMPDEST PUSH1 0x0 PUSH2 0x249 PUSH2 0x33A JUMP JUMPDEST PUSH2 0x254 SWAP1 PUSH1 0x1 PUSH2 0x608 JUMP JUMPDEST SWAP1 POP PUSH2 0x25F DUP2 PUSH2 0x1C7 JUMP JUMPDEST PUSH1 0x0 DUP2 DUP2 MSTORE PUSH1 0x4 PUSH1 0x20 MSTORE PUSH1 0x40 SWAP1 KECCAK256 DUP1 SLOAD PUSH1 0x1 PUSH1 0x1 PUSH1 0xA0 SHL SUB NOT AND PUSH1 0x1 PUSH1 0x1 PUSH1 0xA0 SHL SUB DUP5 AND OR SWAP1 SSTORE DUP2 PUSH1 0x1 PUSH1 0x1 PUSH1 0xA0 SHL SUB AND PUSH32 0x5887AB9161C3BE2FE962B73E068A9F29082EFB6DAF2BFCBD3F064BC34D1EF1B7 DUP3 PUSH1 0x40 MLOAD PUSH2 0x2C1 SWAP2 DUP2 MSTORE PUSH1 0x20 ADD SWAP1 JUMP JUMPDEST PUSH1 0x40 MLOAD DUP1 SWAP2 SUB SWAP1 LOG2 POP POP JUMP JUMPDEST PUSH1 0x0 DUP1 DUP3 SWAP1 POP PUSH1 0x1F DUP2 MLOAD GT ISZERO PUSH2 0x2F8 JUMPI DUP3 PUSH1 0x40 MLOAD PUSH4 0x305A27A9 PUSH1 0xE0 SHL DUP2 MSTORE PUSH1 0x4 ADD PUSH2 0x5C SWAP2 SWAP1 PUSH2 0x629 JUMP JUMPDEST DUP1 MLOAD PUSH2 0x303 DUP3 PUSH2 0x65C JUMP JUMPDEST OR SWAP4 SWAP3 POP POP POP JUMP JUMPDEST PUSH1 0x0 SLOAD PUSH1 0x1 PUSH1 0x1 PUSH1 0xA0 SHL SUB AND CALLER EQ PUSH2 0x338 JUMPI PUSH1 0x40 MLOAD PUSH4 0x118CDAA7 PUSH1 0xE0 SHL DUP2 MSTORE CALLER PUSH1 0x4 DUP3 ADD MSTORE PUSH1 0x24 ADD PUSH2 0x5C JUMP JUMPDEST JUMP JUMPDEST PUSH1 0x0 PUSH2 0x352 PUSH1 0x0 DUP1 MLOAD PUSH1 0x20 PUSH2 0x1C4D DUP4 CODECOPY DUP2 MLOAD SWAP2 MSTORE SLOAD SWAP1 JUMP JUMPDEST SWAP1 POP SWAP1 JUMP JUMPDEST DUP1 MLOAD PUSH1 0x1 PUSH1 0x1 PUSH1 0xA0 SHL SUB DUP2 AND DUP2 EQ PUSH2 0x36E JUMPI PUSH1 0x0 DUP1 REVERT JUMPDEST SWAP2 SWAP1 POP JUMP JUMPDEST PUSH4 0x4E487B71 PUSH1 0xE0 SHL PUSH1 0x0 MSTORE PUSH1 0x41 PUSH1 0x4 MSTORE PUSH1 0x24 PUSH1 0x0 REVERT JUMPDEST PUSH1 0x0 JUMPDEST DUP4 DUP2 LT ISZERO PUSH2 0x3A4 JUMPI DUP2 DUP2 ADD MLOAD DUP4 DUP3 ADD MSTORE PUSH1 0x20 ADD PUSH2 0x38C JUMP JUMPDEST POP POP PUSH1 0x0 SWAP2 ADD MSTORE JUMP JUMPDEST PUSH1 0x0 DUP3 PUSH1 0x1F DUP4 ADD SLT PUSH2 0x3BE JUMPI PUSH1 0x0 DUP1 REVERT JUMPDEST DUP2 MLOAD PUSH1 0x1 PUSH1 0x1 PUSH1 0x40 SHL SUB DUP2 GT ISZERO PUSH2 0x3D7 JUMPI PUSH2 0x3D7 PUSH2 0x373 JUMP JUMPDEST PUSH1 0x40 MLOAD PUSH1 0x1F DUP3 ADD PUSH1 0x1F NOT SWAP1 DUP2 AND PUSH1 0x3F ADD AND DUP2 ADD PUSH1 0x1 PUSH1 0x1 PUSH1 0x40 SHL SUB DUP2 GT DUP3 DUP3 LT OR ISZERO PUSH2 0x405 JUMPI PUSH2 0x405 PUSH2 0x373 JUMP JUMPDEST PUSH1 0x40 MSTORE DUP2 DUP2 MSTORE DUP4 DUP3 ADD PUSH1 0x20 ADD DUP6 LT ISZERO PUSH2 0x41D JUMPI PUSH1 0x0 DUP1 REVERT JUMPDEST PUSH2 0x42E DUP3 PUSH1 0x20 DUP4 ADD PUSH1 0x20 DUP8 ADD PUSH2 0x389 JUMP JUMPDEST SWAP5 SWAP4 POP POP POP POP JUMP JUMPDEST PUSH1 0x0 DUP1 PUSH1 0x0 DUP1 PUSH1 0x80 DUP6 DUP8 SUB SLT ISZERO PUSH2 0x44C JUMPI PUSH1 0x0 DUP1 REVERT JUMPDEST PUSH2 0x455 DUP6 PUSH2 0x357 JUMP JUMPDEST PUSH1 0x20 DUP7 ADD MLOAD SWAP1 SWAP5 POP PUSH1 0x1 PUSH1 0x1 PUSH1 0x40 SHL SUB DUP2 GT ISZERO PUSH2 0x471 JUMPI PUSH1 0x0 DUP1 REVERT JUMPDEST PUSH2 0x47D DUP8 DUP3 DUP9 ADD PUSH2 0x3AD JUMP JUMPDEST PUSH1 0x40 DUP8 ADD MLOAD SWAP1 SWAP5 POP SWAP1 POP PUSH1 0x1 PUSH1 0x1 PUSH1 0x40 SHL SUB DUP2 GT ISZERO PUSH2 0x49B JUMPI PUSH1 0x0 DUP1 REVERT JUMPDEST PUSH2 0x4A7 DUP8 DUP3 DUP9 ADD PUSH2 0x3AD JUMP JUMPDEST SWAP3 POP POP PUSH2 0x4B6 PUSH1 0x60 DUP7 ADD PUSH2 0x357 JUMP JUMPDEST SWAP1 POP SWAP3 SWAP6 SWAP2 SWAP5 POP SWAP3 POP JUMP JUMPDEST PUSH1 0x1 DUP2 DUP2 SHR SWAP1 DUP3 AND DUP1 PUSH2 0x4D5 JUMPI PUSH1 0x7F DUP3 AND SWAP2 POP JUMPDEST PUSH1 0x20 DUP3 LT DUP2 SUB PUSH2 0x4F5 JUMPI PUSH4 0x4E487B71 PUSH1 0xE0 SHL PUSH1 0x0 MSTORE PUSH1 0x22 PUSH1 0x4 MSTORE PUSH1 0x24 PUSH1 0x0 REVERT JUMPDEST POP SWAP2 SWAP1 POP JUMP JUMPDEST PUSH1 0x1F DUP3 GT ISZERO PUSH2 0x545 JUMPI DUP1 PUSH1 0x0 MSTORE PUSH1 0x20 PUSH1 0x0 KECCAK256 PUSH1 0x1F DUP5 ADD PUSH1 0x5 SHR DUP2 ADD PUSH1 0x20 DUP6 LT ISZERO PUSH2 0x522 JUMPI POP DUP1 JUMPDEST PUSH1 0x1F DUP5 ADD PUSH1 0x5 SHR DUP3 ADD SWAP2 POP JUMPDEST DUP2 DUP2 LT ISZERO PUSH2 0x542 JUMPI PUSH1 0x0 DUP2 SSTORE PUSH1 0x1 ADD PUSH2 0x52E JUMP JUMPDEST POP POP JUMPDEST POP POP POP JUMP JUMPDEST DUP2 MLOAD PUSH1 0x1 PUSH1 0x1 PUSH1 0x40 SHL SUB DUP2 GT ISZERO PUSH2 0x563 JUMPI PUSH2 0x563 PUSH2 0x373 JUMP JUMPDEST PUSH2 0x577 DUP2 PUSH2 0x571 DUP5 SLOAD PUSH2 0x4C1 JUMP JUMPDEST DUP5 PUSH2 0x4FB JUMP JUMPDEST PUSH1 0x20 PUSH1 0x1F DUP3 GT PUSH1 0x1 DUP2 EQ PUSH2 0x5AB JUMPI PUSH1 0x0 DUP4 ISZERO PUSH2 0x593 JUMPI POP DUP5 DUP3 ADD MLOAD JUMPDEST PUSH1 0x0 NOT PUSH1 0x3 DUP6 SWAP1 SHL SHR NOT AND PUSH1 0x1 DUP5 SWAP1 SHL OR DUP5 SSTORE PUSH2 0x542 JUMP JUMPDEST PUSH1 0x0 DUP5 DUP2 MSTORE PUSH1 0x20 DUP2 KECCAK256 PUSH1 0x1F NOT DUP6 AND SWAP2 JUMPDEST DUP3 DUP2 LT ISZERO PUSH2 0x5DB JUMPI DUP8 DUP6 ADD MLOAD DUP3 SSTORE PUSH1 0x20 SWAP5 DUP6 ADD SWAP5 PUSH1 0x1 SWAP1 SWAP3 ADD SWAP2 ADD PUSH2 0x5BB JUMP JUMPDEST POP DUP5 DUP3 LT ISZERO PUSH2 0x5F9 JUMPI DUP7 DUP5 ADD MLOAD PUSH1 0x0 NOT PUSH1 0x3 DUP8 SWAP1 SHL PUSH1 0xF8 AND SHR NOT AND DUP2 SSTORE JUMPDEST POP POP POP POP PUSH1 0x1 SWAP1 DUP2 SHL ADD SWAP1 SSTORE POP JUMP JUMPDEST DUP1 DUP3 ADD DUP1 DUP3 GT ISZERO PUSH2 0x1C1 JUMPI PUSH4 0x4E487B71 PUSH1 0xE0 SHL PUSH1 0x0 MSTORE PUSH1 0x11 PUSH1 0x4 MSTORE PUSH1 0x24 PUSH1 0x0 REVERT JUMPDEST PUSH1 0x20 DUP2 MSTORE PUSH1 0x0 DUP3 MLOAD DUP1 PUSH1 0x20 DUP5 ADD MSTORE PUSH2 0x648 DUP2 PUSH1 0x40 DUP6 ADD PUSH1 0x20 DUP8 ADD PUSH2 0x389 JUMP JUMPDEST PUSH1 0x1F ADD PUSH1 0x1F NOT AND SWAP2 SWAP1 SWAP2 ADD PUSH1 0x40 ADD SWAP3 SWAP2 POP POP JUMP JUMPDEST DUP1 MLOAD PUSH1 0x20 DUP1 DUP4 ADD MLOAD SWAP2 SWAP1 DUP2 LT ISZERO PUSH2 0x4F5 JUMPI PUSH1 0x0 NOT PUSH1 0x20 SWAP2 SWAP1 SWAP2 SUB PUSH1 0x3 SHL SHL AND SWAP2 SWAP1 POP JUMP JUMPDEST PUSH1 0x80 MLOAD PUSH1 0xA0 MLOAD PUSH1 0xC0 MLOAD PUSH1 0xE0 MLOAD PUSH2 0x100 MLOAD PUSH2 0x120 MLOAD PUSH2 0x140 MLOAD PUSH2 0x1573 PUSH2 0x6DA PUSH1 0x0 CODECOPY PUSH1 0x0 PUSH2 0xB34 ADD MSTORE PUSH1 0x0 PUSH2 0xB07 ADD MSTORE PUSH1 0x0 PUSH2 0xE0E ADD MSTORE PUSH1 0x0 PUSH2 0xDE6 ADD MSTORE PUSH1 0x0 PUSH2 0xD41 ADD MSTORE PUSH1 0x0 PUSH2 0xD6B ADD MSTORE PUSH1 0x0 PUSH2 0xD95 ADD MSTORE PUSH2 0x1573 PUSH1 0x0 RETURN INVALID PUSH1 0x80 PUSH1 0x40 MSTORE PUSH1 0x4 CALLDATASIZE LT PUSH2 0x95 JUMPI PUSH1 0x0 CALLDATALOAD PUSH1 0xE0 SHR DUP1 PUSH4 0x715018A6 GT PUSH2 0x59 JUMPI DUP1 PUSH4 0x715018A6 EQ PUSH2 0x26B JUMPI DUP1 PUSH4 0x84B0196E EQ PUSH2 0x280 JUMPI DUP1 PUSH4 0x8DA5CB5B EQ PUSH2 0x2A8 JUMPI DUP1 PUSH4 0xF2FDE38B EQ PUSH2 0x2C6 JUMPI DUP1 PUSH4 0xFABEC44A EQ PUSH2 0x2E6 JUMPI PUSH2 0x19A JUMP JUMPDEST DUP1 PUSH4 0x2D57F1C6 EQ PUSH2 0x1AB JUMPI DUP1 PUSH4 0x3659CFE6 EQ PUSH2 0x1CB JUMPI DUP1 PUSH4 0x3B70C9A0 EQ PUSH2 0x1EB JUMPI DUP1 PUSH4 0x5C60DA1B EQ PUSH2 0x228 JUMPI DUP1 PUSH4 0x67E294B2 EQ PUSH2 0x23D JUMPI PUSH2 0x19A JUMP JUMPDEST CALLDATASIZE PUSH2 0x19A JUMPI PUSH1 0x0 SLOAD PUSH1 0x1 PUSH1 0x1 PUSH1 0xA0 SHL SUB AND JUMPDEST PUSH1 0x1 PUSH1 0x1 PUSH1 0xA0 SHL SUB AND CALLER SUB PUSH2 0x103 JUMPI PUSH1 0x40 MLOAD PUSH3 0x461BCD PUSH1 0xE5 SHL DUP2 MSTORE PUSH1 0x20 PUSH1 0x4 DUP3 ADD MSTORE PUSH1 0x1F PUSH1 0x24 DUP3 ADD MSTORE PUSH32 0x4F776E65722063616E6E6F742063616C6C20746869732066756E6374696F6E00 PUSH1 0x44 DUP3 ADD MSTORE PUSH1 0x64 ADD JUMPDEST PUSH1 0x40 MLOAD DUP1 SWAP2 SUB SWAP1 REVERT JUMPDEST PUSH1 0x0 PUSH2 0x10D PUSH2 0x2FB JUMP JUMPDEST CALLER PUSH1 0x0 SWAP1 DUP2 MSTORE PUSH1 0x3 PUSH1 0x20 MSTORE PUSH1 0x40 SWAP1 KECCAK256 SLOAD SWAP1 SWAP2 POP DUP2 EQ PUSH2 0x188 JUMPI PUSH1 0x0 PUSH2 0x130 PUSH2 0x32A JUMP JUMPDEST PUSH1 0x40 MLOAD PUSH1 0x20 ADD PUSH2 0x140 SWAP2 SWAP1 PUSH2 0x10C3 JUMP JUMPDEST PUSH1 0x40 MLOAD PUSH1 0x20 DUP2 DUP4 SUB SUB DUP2 MSTORE SWAP1 PUSH1 0x40 MSTORE SWAP1 POP DUP1 PUSH1 0x40 MLOAD PUSH1 0x20 ADD PUSH2 0x162 SWAP2 SWAP1 PUSH2 0x10DF JUMP JUMPDEST PUSH1 0x40 DUP1 MLOAD PUSH1 0x1F NOT DUP2 DUP5 SUB ADD DUP2 MSTORE SWAP1 DUP3 SWAP1 MSTORE PUSH3 0x461BCD PUSH1 0xE5 SHL DUP3 MSTORE PUSH2 0xFA SWAP2 PUSH1 0x4 ADD PUSH2 0x116B JUMP JUMPDEST PUSH2 0x198 PUSH2 0x193 PUSH2 0x455 JUMP JUMPDEST PUSH2 0x462 JUMP JUMPDEST STOP JUMPDEST PUSH1 0x0 SLOAD PUSH1 0x1 PUSH1 0x1 PUSH1 0xA0 SHL SUB AND PUSH2 0xA7 JUMP JUMPDEST CALLVALUE DUP1 ISZERO PUSH2 0x1B7 JUMPI PUSH1 0x0 DUP1 REVERT JUMPDEST POP PUSH2 0x198 PUSH2 0x1C6 CALLDATASIZE PUSH1 0x4 PUSH2 0x119B JUMP JUMPDEST PUSH2 0x486 JUMP JUMPDEST CALLVALUE DUP1 ISZERO PUSH2 0x1D7 JUMPI PUSH1 0x0 DUP1 REVERT JUMPDEST POP PUSH2 0x198 PUSH2 0x1E6 CALLDATASIZE PUSH1 0x4 PUSH2 0x1254 JUMP JUMPDEST PUSH2 0x5B6 JUMP JUMPDEST CALLVALUE DUP1 ISZERO PUSH2 0x1F7 JUMPI PUSH1 0x0 DUP1 REVERT JUMPDEST POP PUSH2 0x20B PUSH2 0x206 CALLDATASIZE PUSH1 0x4 PUSH2 0x127D JUMP JUMPDEST PUSH2 0x696 JUMP JUMPDEST PUSH1 0x40 MLOAD PUSH1 0x1 PUSH1 0x1 PUSH1 0xA0 SHL SUB SWAP1 SWAP2 AND DUP2 MSTORE PUSH1 0x20 ADD JUMPDEST PUSH1 0x40 MLOAD DUP1 SWAP2 SUB SWAP1 RETURN JUMPDEST CALLVALUE DUP1 ISZERO PUSH2 0x234 JUMPI PUSH1 0x0 DUP1 REVERT JUMPDEST POP PUSH2 0x20B PUSH2 0x6B5 JUMP JUMPDEST CALLVALUE DUP1 ISZERO PUSH2 0x249 JUMPI PUSH1 0x0 DUP1 REVERT JUMPDEST POP PUSH2 0x25D PUSH2 0x258 CALLDATASIZE PUSH1 0x4 PUSH2 0x1254 JUMP JUMPDEST PUSH2 0x6BF JUMP JUMPDEST PUSH1 0x40 MLOAD SWAP1 DUP2 MSTORE PUSH1 0x20 ADD PUSH2 0x21F JUMP JUMPDEST CALLVALUE DUP1 ISZERO PUSH2 0x277 JUMPI PUSH1 0x0 DUP1 REVERT JUMPDEST POP PUSH2 0x198 PUSH2 0x6DD JUMP JUMPDEST CALLVALUE DUP1 ISZERO PUSH2 0x28C JUMPI PUSH1 0x0 DUP1 REVERT JUMPDEST POP PUSH2 0x295 PUSH2 0x6F1 JUMP JUMPDEST PUSH1 0x40 MLOAD PUSH2 0x21F SWAP8 SWAP7 SWAP6 SWAP5 SWAP4 SWAP3 SWAP2 SWAP1 PUSH2 0x1296 JUMP JUMPDEST CALLVALUE DUP1 ISZERO PUSH2 0x2B4 JUMPI PUSH1 0x0 DUP1 REVERT JUMPDEST POP PUSH1 0x0 SLOAD PUSH1 0x1 PUSH1 0x1 PUSH1 0xA0 SHL SUB AND PUSH2 0x20B JUMP JUMPDEST CALLVALUE DUP1 ISZERO PUSH2 0x2D2 JUMPI PUSH1 0x0 DUP1 REVERT JUMPDEST POP PUSH2 0x198 PUSH2 0x2E1 CALLDATASIZE PUSH1 0x4 PUSH2 0x1254 JUMP JUMPDEST PUSH2 0x737 JUMP JUMPDEST CALLVALUE DUP1 ISZERO PUSH2 0x2F2 JUMPI PUSH1 0x0 DUP1 REVERT JUMPDEST POP PUSH2 0x25D PUSH2 0x775 JUMP JUMPDEST PUSH1 0x0 PUSH2 0x325 PUSH32 0xFA612F219094DDA999CF2EE00FB7B97ECB31D820FEDBBAECB6AAD712D0CAC2C4 SLOAD SWAP1 JUMP JUMPDEST SWAP1 POP SWAP1 JUMP JUMPDEST CALLER PUSH1 0x0 SWAP1 DUP2 MSTORE PUSH1 0x3 PUSH1 0x20 SWAP1 DUP2 MSTORE PUSH1 0x40 DUP1 DUP4 KECCAK256 SLOAD DUP4 MSTORE PUSH1 0x4 SWAP1 SWAP2 MSTORE DUP2 KECCAK256 SLOAD PUSH1 0x60 SWAP2 SWAP1 PUSH2 0x395 SWAP1 PUSH1 0x1 PUSH1 0x1 PUSH1 0xA0 SHL SUB AND JUMPDEST PUSH1 0x40 MLOAD PUSH1 0x20 ADD PUSH2 0x381 SWAP2 SWAP1 PUSH1 0x60 SWAP2 SWAP1 SWAP2 SHL PUSH12 0xFFFFFFFFFFFFFFFFFFFFFFFF NOT AND DUP2 MSTORE PUSH1 0x14 ADD SWAP1 JUMP JUMPDEST PUSH1 0x40 MLOAD PUSH1 0x20 DUP2 DUP4 SUB SUB DUP2 MSTORE SWAP1 PUSH1 0x40 MSTORE PUSH2 0x77F JUMP JUMPDEST PUSH1 0x40 MLOAD PUSH1 0x20 ADD PUSH2 0x3A5 SWAP2 SWAP1 PUSH2 0x132E JUMP JUMPDEST PUSH1 0x40 MLOAD PUSH1 0x20 DUP2 DUP4 SUB SUB DUP2 MSTORE SWAP1 PUSH1 0x40 MSTORE SWAP1 POP PUSH1 0x0 PUSH2 0x3E1 PUSH2 0x359 PUSH2 0x3C6 PUSH2 0x2FB JUMP JUMPDEST PUSH1 0x0 SWAP1 DUP2 MSTORE PUSH1 0x4 PUSH1 0x20 MSTORE PUSH1 0x40 SWAP1 KECCAK256 SLOAD PUSH1 0x1 PUSH1 0x1 PUSH1 0xA0 SHL SUB AND SWAP1 JUMP JUMPDEST PUSH1 0x40 MLOAD PUSH1 0x20 ADD PUSH2 0x3F1 SWAP2 SWAP1 PUSH2 0x132E JUMP JUMPDEST PUSH1 0x40 DUP1 MLOAD PUSH1 0x1F NOT DUP2 DUP5 SUB ADD DUP2 MSTORE SWAP2 DUP2 MSTORE CALLER PUSH1 0x0 SWAP1 DUP2 MSTORE PUSH1 0x3 PUSH1 0x20 MSTORE KECCAK256 SLOAD SWAP1 SWAP2 POP PUSH2 0x41A SWAP1 PUSH2 0x91A JUMP JUMPDEST DUP3 PUSH2 0x42B PUSH2 0x426 PUSH2 0x2FB JUMP JUMPDEST PUSH2 0x91A JUMP JUMPDEST DUP4 PUSH1 0x40 MLOAD PUSH1 0x20 ADD PUSH2 0x43F SWAP5 SWAP4 SWAP3 SWAP2 SWAP1 PUSH2 0x1383 JUMP JUMPDEST PUSH1 0x40 MLOAD PUSH1 0x20 DUP2 DUP4 SUB SUB DUP2 MSTORE SWAP1 PUSH1 0x40 MSTORE SWAP3 POP POP POP SWAP1 JUMP JUMPDEST PUSH1 0x0 PUSH2 0x325 PUSH2 0x3C6 PUSH2 0x2FB JUMP JUMPDEST CALLDATASIZE PUSH1 0x0 DUP1 CALLDATACOPY PUSH1 0x0 DUP1 CALLDATASIZE PUSH1 0x0 DUP5 GAS DELEGATECALL RETURNDATASIZE PUSH1 0x0 DUP1 RETURNDATACOPY DUP1 DUP1 ISZERO PUSH2 0x481 JUMPI RETURNDATASIZE PUSH1 0x0 RETURN JUMPDEST RETURNDATASIZE PUSH1 0x0 REVERT JUMPDEST PUSH1 0x0 SLOAD PUSH1 0x1 PUSH1 0x1 PUSH1 0xA0 SHL SUB AND CALLER SUB PUSH2 0x4E0 JUMPI PUSH1 0x40 MLOAD PUSH3 0x461BCD PUSH1 0xE5 SHL DUP2 MSTORE PUSH1 0x20 PUSH1 0x4 DUP3 ADD MSTORE PUSH1 0x1F PUSH1 0x24 DUP3 ADD MSTORE PUSH32 0x4F776E65722063616E6E6F742063616C6C20746869732066756E6374696F6E00 PUSH1 0x44 DUP3 ADD MSTORE PUSH1 0x64 ADD PUSH2 0xFA JUMP JUMPDEST PUSH1 0x0 PUSH2 0x4EA PUSH2 0x2FB JUMP JUMPDEST CALLER PUSH1 0x0 SWAP1 DUP2 MSTORE PUSH1 0x3 PUSH1 0x20 MSTORE PUSH1 0x40 SWAP1 KECCAK256 SLOAD SWAP1 SWAP2 POP DUP2 GT PUSH2 0x50E JUMPI PUSH2 0x50E PUSH2 0x193 PUSH2 0x455 JUMP JUMPDEST PUSH2 0x521 CALLER DUP3 PUSH2 0x51B PUSH2 0x32A JUMP JUMPDEST DUP6 PUSH2 0x9AD JUMP JUMPDEST PUSH2 0x566 JUMPI PUSH1 0x40 MLOAD PUSH3 0x461BCD PUSH1 0xE5 SHL DUP2 MSTORE PUSH1 0x20 PUSH1 0x4 DUP3 ADD MSTORE PUSH1 0x16 PUSH1 0x24 DUP3 ADD MSTORE PUSH22 0x125B9D985B1A59081858DADB9BDDDB195919DB595B9D PUSH1 0x52 SHL PUSH1 0x44 DUP3 ADD MSTORE PUSH1 0x64 ADD PUSH2 0xFA JUMP JUMPDEST CALLER PUSH1 0x0 DUP2 DUP2 MSTORE PUSH1 0x3 PUSH1 0x20 MSTORE PUSH1 0x40 SWAP1 DUP2 SWAP1 KECCAK256 DUP4 SWAP1 SSTORE MLOAD PUSH32 0xB2750FB49563752AC33E16422B7DE9722A51607E258F2FD22FB0C55A8804D8FA SWAP1 PUSH2 0x5AA SWAP1 DUP5 DUP2 MSTORE PUSH1 0x20 ADD SWAP1 JUMP JUMPDEST PUSH1 0x40 MLOAD DUP1 SWAP2 SUB SWAP1 LOG2 POP POP JUMP JUMPDEST PUSH2 0x5BE PUSH2 0xA5A JUMP JUMPDEST PUSH1 0x1 PUSH1 0x1 PUSH1 0xA0 SHL SUB DUP2 AND PUSH2 0x614 JUMPI PUSH1 0x40 MLOAD PUSH3 0x461BCD PUSH1 0xE5 SHL DUP2 MSTORE PUSH1 0x20 PUSH1 0x4 DUP3 ADD MSTORE PUSH1 0x1E PUSH1 0x24 DUP3 ADD MSTORE PUSH32 0x496E76616C696420696D706C656D656E746174696F6E20616464726573730000 PUSH1 0x44 DUP3 ADD MSTORE PUSH1 0x64 ADD PUSH2 0xFA JUMP JUMPDEST PUSH1 0x0 PUSH2 0x61E PUSH2 0x2FB JUMP JUMPDEST PUSH2 0x629 SWAP1 PUSH1 0x1 PUSH2 0x14AD JUMP JUMPDEST SWAP1 POP PUSH2 0x634 DUP2 PUSH2 0xA87 JUMP JUMPDEST PUSH1 0x0 DUP2 DUP2 MSTORE PUSH1 0x4 PUSH1 0x20 MSTORE PUSH1 0x40 SWAP1 KECCAK256 DUP1 SLOAD PUSH1 0x1 PUSH1 0x1 PUSH1 0xA0 SHL SUB NOT AND PUSH1 0x1 PUSH1 0x1 PUSH1 0xA0 SHL SUB DUP5 AND OR SWAP1 SSTORE DUP2 PUSH1 0x1 PUSH1 0x1 PUSH1 0xA0 SHL SUB AND PUSH32 0x5887AB9161C3BE2FE962B73E068A9F29082EFB6DAF2BFCBD3F064BC34D1EF1B7 DUP3 PUSH1 0x40 MLOAD PUSH2 0x5AA SWAP2 DUP2 MSTORE PUSH1 0x20 ADD SWAP1 JUMP JUMPDEST PUSH1 0x0 DUP2 DUP2 MSTORE PUSH1 0x4 PUSH1 0x20 MSTORE PUSH1 0x40 DUP2 KECCAK256 SLOAD PUSH1 0x1 PUSH1 0x1 PUSH1 0xA0 SHL SUB AND JUMPDEST SWAP3 SWAP2 POP POP JUMP JUMPDEST PUSH1 0x0 PUSH2 0x325 PUSH2 0x455 JUMP JUMPDEST PUSH1 0x1 PUSH1 0x1 PUSH1 0xA0 SHL SUB DUP2 AND PUSH1 0x0 SWAP1 DUP2 MSTORE PUSH1 0x3 PUSH1 0x20 MSTORE PUSH1 0x40 DUP2 KECCAK256 SLOAD PUSH2 0x6AF JUMP JUMPDEST PUSH2 0x6E5 PUSH2 0xA5A JUMP JUMPDEST PUSH2 0x6EF PUSH1 0x0 PUSH2 0xAB0 JUMP JUMPDEST JUMP JUMPDEST PUSH1 0x0 PUSH1 0x60 DUP1 PUSH1 0x0 DUP1 PUSH1 0x0 PUSH1 0x60 PUSH2 0x705 PUSH2 0xB00 JUMP JUMPDEST PUSH2 0x70D PUSH2 0xB2D JUMP JUMPDEST PUSH1 0x40 DUP1 MLOAD PUSH1 0x0 DUP1 DUP3 MSTORE PUSH1 0x20 DUP3 ADD SWAP1 SWAP3 MSTORE PUSH1 0xF PUSH1 0xF8 SHL SWAP12 SWAP4 SWAP11 POP SWAP2 SWAP9 POP CHAINID SWAP8 POP ADDRESS SWAP7 POP SWAP5 POP SWAP3 POP SWAP1 POP JUMP JUMPDEST PUSH2 0x73F PUSH2 0xA5A JUMP JUMPDEST PUSH1 0x1 PUSH1 0x1 PUSH1 0xA0 SHL SUB DUP2 AND PUSH2 0x769 JUMPI PUSH1 0x40 MLOAD PUSH4 0x1E4FBDF7 PUSH1 0xE0 SHL DUP2 MSTORE PUSH1 0x0 PUSH1 0x4 DUP3 ADD MSTORE PUSH1 0x24 ADD PUSH2 0xFA JUMP JUMPDEST PUSH2 0x772 DUP2 PUSH2 0xAB0 JUMP JUMPDEST POP JUMP JUMPDEST PUSH1 0x0 PUSH2 0x325 PUSH2 0x2FB JUMP JUMPDEST PUSH1 0x40 DUP1 MLOAD DUP1 DUP3 ADD SWAP1 SWAP2 MSTORE PUSH1 0x10 DUP2 MSTORE PUSH16 0x181899199A1A9B1B9C1CB0B131B232B3 PUSH1 0x81 SHL PUSH1 0x20 DUP3 ADD MSTORE DUP2 MLOAD PUSH1 0x60 SWAP2 SWAP1 PUSH1 0x0 SWAP1 PUSH2 0x7BA SWAP1 PUSH1 0x2 PUSH2 0x14C0 JUMP JUMPDEST PUSH8 0xFFFFFFFFFFFFFFFF DUP2 GT ISZERO PUSH2 0x7D2 JUMPI PUSH2 0x7D2 PUSH2 0x1185 JUMP JUMPDEST PUSH1 0x40 MLOAD SWAP1 DUP1 DUP3 MSTORE DUP1 PUSH1 0x1F ADD PUSH1 0x1F NOT AND PUSH1 0x20 ADD DUP3 ADD PUSH1 0x40 MSTORE DUP1 ISZERO PUSH2 0x7FC JUMPI PUSH1 0x20 DUP3 ADD DUP2 DUP1 CALLDATASIZE DUP4 CALLDATACOPY ADD SWAP1 POP JUMPDEST POP SWAP1 POP PUSH1 0x0 JUMPDEST DUP5 MLOAD DUP2 LT ISZERO PUSH2 0x912 JUMPI DUP3 PUSH1 0x4 DUP7 DUP4 DUP2 MLOAD DUP2 LT PUSH2 0x820 JUMPI PUSH2 0x820 PUSH2 0x14D7 JUMP JUMPDEST ADD PUSH1 0x20 ADD MLOAD DUP3 MLOAD PUSH1 0x1 PUSH1 0x1 PUSH1 0xF8 SHL SUB NOT SWAP1 SWAP2 AND SWAP1 SWAP2 SHR PUSH1 0xF8 SHR SWAP1 DUP2 LT PUSH2 0x848 JUMPI PUSH2 0x848 PUSH2 0x14D7 JUMP JUMPDEST ADD PUSH1 0x20 ADD MLOAD PUSH1 0x1 PUSH1 0x1 PUSH1 0xF8 SHL SUB NOT AND DUP3 PUSH2 0x863 DUP4 PUSH1 0x2 PUSH2 0x14C0 JUMP JUMPDEST DUP2 MLOAD DUP2 LT PUSH2 0x873 JUMPI PUSH2 0x873 PUSH2 0x14D7 JUMP JUMPDEST PUSH1 0x20 ADD ADD SWAP1 PUSH1 0x1 PUSH1 0x1 PUSH1 0xF8 SHL SUB NOT AND SWAP1 DUP2 PUSH1 0x0 BYTE SWAP1 MSTORE8 POP DUP3 DUP6 DUP3 DUP2 MLOAD DUP2 LT PUSH2 0x89D JUMPI PUSH2 0x89D PUSH2 0x14D7 JUMP JUMPDEST PUSH1 0x20 SWAP2 ADD ADD MLOAD DUP2 MLOAD PUSH1 0xF8 SWAP2 SWAP1 SWAP2 SHR PUSH1 0xF AND SWAP1 DUP2 LT PUSH2 0x8BD JUMPI PUSH2 0x8BD PUSH2 0x14D7 JUMP JUMPDEST ADD PUSH1 0x20 ADD MLOAD PUSH1 0x1 PUSH1 0x1 PUSH1 0xF8 SHL SUB NOT AND DUP3 PUSH2 0x8D8 DUP4 PUSH1 0x2 PUSH2 0x14C0 JUMP JUMPDEST PUSH2 0x8E3 SWAP1 PUSH1 0x1 PUSH2 0x14AD JUMP JUMPDEST DUP2 MLOAD DUP2 LT PUSH2 0x8F3 JUMPI PUSH2 0x8F3 PUSH2 0x14D7 JUMP JUMPDEST PUSH1 0x20 ADD ADD SWAP1 PUSH1 0x1 PUSH1 0x1 PUSH1 0xF8 SHL SUB NOT AND SWAP1 DUP2 PUSH1 0x0 BYTE SWAP1 MSTORE8 POP PUSH1 0x1 ADD PUSH2 0x802 JUMP JUMPDEST POP SWAP4 SWAP3 POP POP POP JUMP JUMPDEST PUSH1 0x60 PUSH1 0x0 PUSH2 0x927 DUP4 PUSH2 0xB5A JUMP JUMPDEST PUSH1 0x1 ADD SWAP1 POP PUSH1 0x0 DUP2 PUSH8 0xFFFFFFFFFFFFFFFF DUP2 GT ISZERO PUSH2 0x947 JUMPI PUSH2 0x947 PUSH2 0x1185 JUMP JUMPDEST PUSH1 0x40 MLOAD SWAP1 DUP1 DUP3 MSTORE DUP1 PUSH1 0x1F ADD PUSH1 0x1F NOT AND PUSH1 0x20 ADD DUP3 ADD PUSH1 0x40 MSTORE DUP1 ISZERO PUSH2 0x971 JUMPI PUSH1 0x20 DUP3 ADD DUP2 DUP1 CALLDATASIZE DUP4 CALLDATACOPY ADD SWAP1 POP JUMPDEST POP SWAP1 POP DUP2 DUP2 ADD PUSH1 0x20 ADD JUMPDEST PUSH1 0x0 NOT ADD PUSH16 0x181899199A1A9B1B9C1CB0B131B232B3 PUSH1 0x81 SHL PUSH1 0xA DUP7 MOD BYTE DUP2 MSTORE8 PUSH1 0xA DUP6 DIV SWAP5 POP DUP5 PUSH2 0x97B JUMPI POP SWAP4 SWAP3 POP POP POP JUMP JUMPDEST PUSH1 0x0 DUP1 PUSH32 0xEACF654F9EB57C0FC9B51C946D3609E17608874F75F50D3CAAC0E72F3CAC96C8 DUP7 DUP7 DUP7 DUP1 MLOAD SWAP1 PUSH1 0x20 ADD KECCAK256 PUSH1 0x40 MLOAD PUSH1 0x20 ADD PUSH2 0xA0D SWAP5 SWAP4 SWAP3 SWAP2 SWAP1 SWAP4 DUP5 MSTORE PUSH1 0x1 PUSH1 0x1 PUSH1 0xA0 SHL SUB SWAP3 SWAP1 SWAP3 AND PUSH1 0x20 DUP5 ADD MSTORE PUSH1 0x40 DUP4 ADD MSTORE PUSH1 0x60 DUP3 ADD MSTORE PUSH1 0x80 ADD SWAP1 JUMP JUMPDEST PUSH1 0x40 MLOAD PUSH1 0x20 DUP2 DUP4 SUB SUB DUP2 MSTORE SWAP1 PUSH1 0x40 MSTORE DUP1 MLOAD SWAP1 PUSH1 0x20 ADD KECCAK256 SWAP1 POP PUSH1 0x0 PUSH2 0xA30 DUP3 PUSH2 0xC32 JUMP JUMPDEST SWAP1 POP PUSH1 0x0 PUSH2 0xA3E DUP3 DUP7 PUSH2 0xC5F JUMP JUMPDEST PUSH1 0x1 PUSH1 0x1 PUSH1 0xA0 SHL SUB SWAP1 DUP2 AND SWAP1 DUP10 AND EQ SWAP4 POP POP POP POP SWAP5 SWAP4 POP POP POP POP JUMP JUMPDEST PUSH1 0x0 SLOAD PUSH1 0x1 PUSH1 0x1 PUSH1 0xA0 SHL SUB AND CALLER EQ PUSH2 0x6EF JUMPI PUSH1 0x40 MLOAD PUSH4 0x118CDAA7 PUSH1 0xE0 SHL DUP2 MSTORE CALLER PUSH1 0x4 DUP3 ADD MSTORE PUSH1 0x24 ADD PUSH2 0xFA JUMP JUMPDEST PUSH2 0x772 PUSH32 0xFA612F219094DDA999CF2EE00FB7B97ECB31D820FEDBBAECB6AAD712D0CAC2C4 DUP3 SWAP1 SSTORE JUMP JUMPDEST PUSH1 0x0 DUP1 SLOAD PUSH1 0x1 PUSH1 0x1 PUSH1 0xA0 SHL SUB DUP4 DUP2 AND PUSH1 0x1 PUSH1 0x1 PUSH1 0xA0 SHL SUB NOT DUP4 AND DUP2 OR DUP5 SSTORE PUSH1 0x40 MLOAD SWAP2 SWAP1 SWAP3 AND SWAP3 DUP4 SWAP2 PUSH32 0x8BE0079C531659141344CD1FD0A4F28419497F9722A3DAAFE3B4186F6B6457E0 SWAP2 SWAP1 LOG3 POP POP JUMP JUMPDEST PUSH1 0x60 PUSH2 0x325 PUSH32 0x0 PUSH1 0x1 PUSH2 0xC89 JUMP JUMPDEST PUSH1 0x60 PUSH2 0x325 PUSH32 0x0 PUSH1 0x2 PUSH2 0xC89 JUMP JUMPDEST PUSH1 0x0 DUP1 PUSH19 0x184F03E93FF9F4DAA797ED6E38ED64BF6A1F01 PUSH1 0x40 SHL DUP4 LT PUSH2 0xB99 JUMPI PUSH19 0x184F03E93FF9F4DAA797ED6E38ED64BF6A1F01 PUSH1 0x40 SHL DUP4 DIV SWAP3 POP PUSH1 0x40 ADD JUMPDEST PUSH14 0x4EE2D6D415B85ACEF8100000000 DUP4 LT PUSH2 0xBC5 JUMPI PUSH14 0x4EE2D6D415B85ACEF8100000000 DUP4 DIV SWAP3 POP PUSH1 0x20 ADD JUMPDEST PUSH7 0x2386F26FC10000 DUP4 LT PUSH2 0xBE3 JUMPI PUSH7 0x2386F26FC10000 DUP4 DIV SWAP3 POP PUSH1 0x10 ADD JUMPDEST PUSH4 0x5F5E100 DUP4 LT PUSH2 0xBFB JUMPI PUSH4 0x5F5E100 DUP4 DIV SWAP3 POP PUSH1 0x8 ADD JUMPDEST PUSH2 0x2710 DUP4 LT PUSH2 0xC0F JUMPI PUSH2 0x2710 DUP4 DIV SWAP3 POP PUSH1 0x4 ADD JUMPDEST PUSH1 0x64 DUP4 LT PUSH2 0xC21 JUMPI PUSH1 0x64 DUP4 DIV SWAP3 POP PUSH1 0x2 ADD JUMPDEST PUSH1 0xA DUP4 LT PUSH2 0x6AF JUMPI PUSH1 0x1 ADD SWAP3 SWAP2 POP POP JUMP JUMPDEST PUSH1 0x0 PUSH2 0x6AF PUSH2 0xC3F PUSH2 0xD34 JUMP JUMPDEST DUP4 PUSH1 0x40 MLOAD PUSH2 0x1901 PUSH1 0xF0 SHL DUP2 MSTORE PUSH1 0x2 DUP2 ADD SWAP3 SWAP1 SWAP3 MSTORE PUSH1 0x22 DUP3 ADD MSTORE PUSH1 0x42 SWAP1 KECCAK256 SWAP1 JUMP JUMPDEST PUSH1 0x0 DUP1 PUSH1 0x0 DUP1 PUSH2 0xC6F DUP7 DUP7 PUSH2 0xE5F JUMP JUMPDEST SWAP3 POP SWAP3 POP SWAP3 POP PUSH2 0xC7F DUP3 DUP3 PUSH2 0xEAC JUMP JUMPDEST POP SWAP1 SWAP5 SWAP4 POP POP POP POP JUMP JUMPDEST PUSH1 0x60 PUSH1 0xFF DUP4 EQ PUSH2 0xCA3 JUMPI PUSH2 0xC9C DUP4 PUSH2 0xF69 JUMP JUMPDEST SWAP1 POP PUSH2 0x6AF JUMP JUMPDEST DUP2 DUP1 SLOAD PUSH2 0xCAF SWAP1 PUSH2 0x14ED JUMP JUMPDEST DUP1 PUSH1 0x1F ADD PUSH1 0x20 DUP1 SWAP2 DIV MUL PUSH1 0x20 ADD PUSH1 0x40 MLOAD SWAP1 DUP2 ADD PUSH1 0x40 MSTORE DUP1 SWAP3 SWAP2 SWAP1 DUP2 DUP2 MSTORE PUSH1 0x20 ADD DUP3 DUP1 SLOAD PUSH2 0xCDB SWAP1 PUSH2 0x14ED JUMP JUMPDEST DUP1 ISZERO PUSH2 0xD28 JUMPI DUP1 PUSH1 0x1F LT PUSH2 0xCFD JUMPI PUSH2 0x100 DUP1 DUP4 SLOAD DIV MUL DUP4 MSTORE SWAP2 PUSH1 0x20 ADD SWAP2 PUSH2 0xD28 JUMP JUMPDEST DUP3 ADD SWAP2 SWAP1 PUSH1 0x0 MSTORE PUSH1 0x20 PUSH1 0x0 KECCAK256 SWAP1 JUMPDEST DUP2 SLOAD DUP2 MSTORE SWAP1 PUSH1 0x1 ADD SWAP1 PUSH1 0x20 ADD DUP1 DUP4 GT PUSH2 0xD0B JUMPI DUP3 SWAP1 SUB PUSH1 0x1F AND DUP3 ADD SWAP2 JUMPDEST POP POP POP POP POP SWAP1 POP PUSH2 0x6AF JUMP JUMPDEST PUSH1 0x0 ADDRESS PUSH1 0x1 PUSH1 0x1 PUSH1 0xA0 SHL SUB PUSH32 0x0 AND EQ DUP1 ISZERO PUSH2 0xD8D JUMPI POP PUSH32 0x0 CHAINID EQ JUMPDEST ISZERO PUSH2 0xDB7 JUMPI POP PUSH32 0x0 SWAP1 JUMP JUMPDEST PUSH2 0x325 PUSH1 0x40 DUP1 MLOAD PUSH32 0x8B73C3C69BB8FE3D512ECC4CF759CC79239F7B179B0FFACAA9A75D522B39400F PUSH1 0x20 DUP3 ADD MSTORE PUSH32 0x0 SWAP2 DUP2 ADD SWAP2 SWAP1 SWAP2 MSTORE PUSH32 0x0 PUSH1 0x60 DUP3 ADD MSTORE CHAINID PUSH1 0x80 DUP3 ADD MSTORE ADDRESS PUSH1 0xA0 DUP3 ADD MSTORE PUSH1 0x0 SWAP1 PUSH1 0xC0 ADD PUSH1 0x40 MLOAD PUSH1 0x20 DUP2 DUP4 SUB SUB DUP2 MSTORE SWAP1 PUSH1 0x40 MSTORE DUP1 MLOAD SWAP1 PUSH1 0x20 ADD KECCAK256 SWAP1 POP SWAP1 JUMP JUMPDEST PUSH1 0x0 DUP1 PUSH1 0x0 DUP4 MLOAD PUSH1 0x41 SUB PUSH2 0xE99 JUMPI PUSH1 0x20 DUP5 ADD MLOAD PUSH1 0x40 DUP6 ADD MLOAD PUSH1 0x60 DUP7 ADD MLOAD PUSH1 0x0 BYTE PUSH2 0xE8B DUP9 DUP3 DUP6 DUP6 PUSH2 0xFA8 JUMP JUMPDEST SWAP6 POP SWAP6 POP SWAP6 POP POP POP POP PUSH2 0xEA5 JUMP JUMPDEST POP POP DUP2 MLOAD PUSH1 0x0 SWAP2 POP PUSH1 0x2 SWAP1 JUMPDEST SWAP3 POP SWAP3 POP SWAP3 JUMP JUMPDEST PUSH1 0x0 DUP3 PUSH1 0x3 DUP2 GT ISZERO PUSH2 0xEC0 JUMPI PUSH2 0xEC0 PUSH2 0x1527 JUMP JUMPDEST SUB PUSH2 0xEC9 JUMPI POP POP JUMP JUMPDEST PUSH1 0x1 DUP3 PUSH1 0x3 DUP2 GT ISZERO PUSH2 0xEDD JUMPI PUSH2 0xEDD PUSH2 0x1527 JUMP JUMPDEST SUB PUSH2 0xEFB JUMPI PUSH1 0x40 MLOAD PUSH4 0xF645EEDF PUSH1 0xE0 SHL DUP2 MSTORE PUSH1 0x4 ADD PUSH1 0x40 MLOAD DUP1 SWAP2 SUB SWAP1 REVERT JUMPDEST PUSH1 0x2 DUP3 PUSH1 0x3 DUP2 GT ISZERO PUSH2 0xF0F JUMPI PUSH2 0xF0F PUSH2 0x1527 JUMP JUMPDEST SUB PUSH2 0xF30 JUMPI PUSH1 0x40 MLOAD PUSH4 0xFCE698F7 PUSH1 0xE0 SHL DUP2 MSTORE PUSH1 0x4 DUP2 ADD DUP3 SWAP1 MSTORE PUSH1 0x24 ADD PUSH2 0xFA JUMP JUMPDEST PUSH1 0x3 DUP3 PUSH1 0x3 DUP2 GT ISZERO PUSH2 0xF44 JUMPI PUSH2 0xF44 PUSH2 0x1527 JUMP JUMPDEST SUB PUSH2 0xF65 JUMPI PUSH1 0x40 MLOAD PUSH4 0x35E2F383 PUSH1 0xE2 SHL DUP2 MSTORE PUSH1 0x4 DUP2 ADD DUP3 SWAP1 MSTORE PUSH1 0x24 ADD PUSH2 0xFA JUMP JUMPDEST POP POP JUMP JUMPDEST PUSH1 0x60 PUSH1 0x0 PUSH2 0xF76 DUP4 PUSH2 0x1077 JUMP JUMPDEST PUSH1 0x40 DUP1 MLOAD PUSH1 0x20 DUP1 DUP3 MSTORE DUP2 DUP4 ADD SWAP1 SWAP3 MSTORE SWAP2 SWAP3 POP PUSH1 0x0 SWAP2 SWAP1 PUSH1 0x20 DUP3 ADD DUP2 DUP1 CALLDATASIZE DUP4 CALLDATACOPY POP POP POP SWAP2 DUP3 MSTORE POP PUSH1 0x20 DUP2 ADD SWAP3 SWAP1 SWAP3 MSTORE POP SWAP1 JUMP JUMPDEST PUSH1 0x0 DUP1 DUP1 PUSH32 0x7FFFFFFFFFFFFFFFFFFFFFFFFFFFFFFF5D576E7357A4501DDFE92F46681B20A0 DUP5 GT ISZERO PUSH2 0xFE3 JUMPI POP PUSH1 0x0 SWAP2 POP PUSH1 0x3 SWAP1 POP DUP3 PUSH2 0x106D JUMP JUMPDEST PUSH1 0x40 DUP1 MLOAD PUSH1 0x0 DUP1 DUP3 MSTORE PUSH1 0x20 DUP3 ADD DUP1 DUP5 MSTORE DUP11 SWAP1 MSTORE PUSH1 0xFF DUP10 AND SWAP3 DUP3 ADD SWAP3 SWAP1 SWAP3 MSTORE PUSH1 0x60 DUP2 ADD DUP8 SWAP1 MSTORE PUSH1 0x80 DUP2 ADD DUP7 SWAP1 MSTORE PUSH1 0x1 SWAP1 PUSH1 0xA0 ADD PUSH1 0x20 PUSH1 0x40 MLOAD PUSH1 0x20 DUP2 SUB SWAP1 DUP1 DUP5 SUB SWAP1 DUP6 GAS STATICCALL ISZERO DUP1 ISZERO PUSH2 0x1037 JUMPI RETURNDATASIZE PUSH1 0x0 DUP1 RETURNDATACOPY RETURNDATASIZE PUSH1 0x0 REVERT JUMPDEST POP POP PUSH1 0x40 MLOAD PUSH1 0x1F NOT ADD MLOAD SWAP2 POP POP PUSH1 0x1 PUSH1 0x1 PUSH1 0xA0 SHL SUB DUP2 AND PUSH2 0x1063 JUMPI POP PUSH1 0x0 SWAP3 POP PUSH1 0x1 SWAP2 POP DUP3 SWAP1 POP PUSH2 0x106D JUMP JUMPDEST SWAP3 POP PUSH1 0x0 SWAP2 POP DUP2 SWAP1 POP JUMPDEST SWAP5 POP SWAP5 POP SWAP5 SWAP2 POP POP JUMP JUMPDEST PUSH1 0x0 PUSH1 0xFF DUP3 AND PUSH1 0x1F DUP2 GT ISZERO PUSH2 0x6AF JUMPI PUSH1 0x40 MLOAD PUSH4 0x2CD44AC3 PUSH1 0xE2 SHL DUP2 MSTORE PUSH1 0x4 ADD PUSH1 0x40 MLOAD DUP1 SWAP2 SUB SWAP1 REVERT JUMPDEST PUSH1 0x0 JUMPDEST DUP4 DUP2 LT ISZERO PUSH2 0x10BA JUMPI DUP2 DUP2 ADD MLOAD DUP4 DUP3 ADD MSTORE PUSH1 0x20 ADD PUSH2 0x10A2 JUMP JUMPDEST POP POP PUSH1 0x0 SWAP2 ADD MSTORE JUMP JUMPDEST PUSH1 0x0 DUP3 MLOAD PUSH2 0x10D5 DUP2 DUP5 PUSH1 0x20 DUP8 ADD PUSH2 0x109F JUMP JUMPDEST SWAP2 SWAP1 SWAP2 ADD SWAP3 SWAP2 POP POP JUMP JUMPDEST PUSH32 0x4552524F525F434F44455F313A20506C656173652061636B6E6F776C65646765 DUP2 MSTORE PUSH18 0x103A3432903732BB903B32B939B4B7B7109 PUSH1 0x75 SHL PUSH1 0x20 DUP3 ADD MSTORE PUSH1 0x0 DUP3 MLOAD PUSH2 0x1132 DUP2 PUSH1 0x32 DUP6 ADD PUSH1 0x20 DUP8 ADD PUSH2 0x109F JUMP JUMPDEST SWAP2 SWAP1 SWAP2 ADD PUSH1 0x32 ADD SWAP3 SWAP2 POP POP JUMP JUMPDEST PUSH1 0x0 DUP2 MLOAD DUP1 DUP5 MSTORE PUSH2 0x1157 DUP2 PUSH1 0x20 DUP7 ADD PUSH1 0x20 DUP7 ADD PUSH2 0x109F JUMP JUMPDEST PUSH1 0x1F ADD PUSH1 0x1F NOT AND SWAP3 SWAP1 SWAP3 ADD PUSH1 0x20 ADD SWAP3 SWAP2 POP POP JUMP JUMPDEST PUSH1 0x20 DUP2 MSTORE PUSH1 0x0 PUSH2 0x117E PUSH1 0x20 DUP4 ADD DUP5 PUSH2 0x113F JUMP JUMPDEST SWAP4 SWAP3 POP POP POP JUMP JUMPDEST PUSH4 0x4E487B71 PUSH1 0xE0 SHL PUSH1 0x0 MSTORE PUSH1 0x41 PUSH1 0x4 MSTORE PUSH1 0x24 PUSH1 0x0 REVERT JUMPDEST PUSH1 0x0 PUSH1 0x20 DUP3 DUP5 SUB SLT ISZERO PUSH2 0x11AD JUMPI PUSH1 0x0 DUP1 REVERT JUMPDEST DUP2 CALLDATALOAD PUSH8 0xFFFFFFFFFFFFFFFF DUP2 GT ISZERO PUSH2 0x11C4 JUMPI PUSH1 0x0 DUP1 REVERT JUMPDEST DUP3 ADD PUSH1 0x1F DUP2 ADD DUP5 SGT PUSH2 0x11D5 JUMPI PUSH1 0x0 DUP1 REVERT JUMPDEST DUP1 CALLDATALOAD PUSH8 0xFFFFFFFFFFFFFFFF DUP2 GT ISZERO PUSH2 0x11EF JUMPI PUSH2 0x11EF PUSH2 0x1185 JUMP JUMPDEST PUSH1 0x40 MLOAD PUSH1 0x1F DUP3 ADD PUSH1 0x1F NOT SWAP1 DUP2 AND PUSH1 0x3F ADD AND DUP2 ADD PUSH8 0xFFFFFFFFFFFFFFFF DUP2 GT DUP3 DUP3 LT OR ISZERO PUSH2 0x121E JUMPI PUSH2 0x121E PUSH2 0x1185 JUMP JUMPDEST PUSH1 0x40 MSTORE DUP2 DUP2 MSTORE DUP3 DUP3 ADD PUSH1 0x20 ADD DUP7 LT ISZERO PUSH2 0x1236 JUMPI PUSH1 0x0 DUP1 REVERT JUMPDEST DUP2 PUSH1 0x20 DUP5 ADD PUSH1 0x20 DUP4 ADD CALLDATACOPY PUSH1 0x0 SWAP2 DUP2 ADD PUSH1 0x20 ADD SWAP2 SWAP1 SWAP2 MSTORE SWAP5 SWAP4 POP POP POP POP JUMP JUMPDEST PUSH1 0x0 PUSH1 0x20 DUP3 DUP5 SUB SLT ISZERO PUSH2 0x1266 JUMPI PUSH1 0x0 DUP1 REVERT JUMPDEST DUP2 CALLDATALOAD PUSH1 0x1 PUSH1 0x1 PUSH1 0xA0 SHL SUB DUP2 AND DUP2 EQ PUSH2 0x117E JUMPI PUSH1 0x0 DUP1 REVERT JUMPDEST PUSH1 0x0 PUSH1 0x20 DUP3 DUP5 SUB SLT ISZERO PUSH2 0x128F JUMPI PUSH1 0x0 DUP1 REVERT JUMPDEST POP CALLDATALOAD SWAP2 SWAP1 POP JUMP JUMPDEST PUSH1 0xFF PUSH1 0xF8 SHL DUP9 AND DUP2 MSTORE PUSH1 0xE0 PUSH1 0x20 DUP3 ADD MSTORE PUSH1 0x0 PUSH2 0x12B5 PUSH1 0xE0 DUP4 ADD DUP10 PUSH2 0x113F JUMP JUMPDEST DUP3 DUP2 SUB PUSH1 0x40 DUP5 ADD MSTORE PUSH2 0x12C7 DUP2 DUP10 PUSH2 0x113F JUMP JUMPDEST PUSH1 0x60 DUP5 ADD DUP9 SWAP1 MSTORE PUSH1 0x1 PUSH1 0x1 PUSH1 0xA0 SHL SUB DUP8 AND PUSH1 0x80 DUP6 ADD MSTORE PUSH1 0xA0 DUP5 ADD DUP7 SWAP1 MSTORE DUP4 DUP2 SUB PUSH1 0xC0 DUP6 ADD MSTORE DUP5 MLOAD DUP1 DUP3 MSTORE PUSH1 0x20 DUP1 DUP8 ADD SWAP4 POP SWAP1 SWAP2 ADD SWAP1 PUSH1 0x0 JUMPDEST DUP2 DUP2 LT ISZERO PUSH2 0x131D JUMPI DUP4 MLOAD DUP4 MSTORE PUSH1 0x20 SWAP4 DUP5 ADD SWAP4 SWAP1 SWAP3 ADD SWAP2 PUSH1 0x1 ADD PUSH2 0x12FF JUMP JUMPDEST POP SWAP1 SWAP12 SWAP11 POP POP POP POP POP POP POP POP POP POP POP JUMP JUMPDEST PUSH32 0x2868747470733A2F2F65746865727363616E2E696F2F616464726573732F3078 DUP2 MSTORE PUSH1 0x0 DUP3 MLOAD PUSH2 0x1366 DUP2 PUSH1 0x20 DUP6 ADD PUSH1 0x20 DUP8 ADD PUSH2 0x109F JUMP JUMPDEST PUSH6 0x23636F646529 PUSH1 0xD0 SHL PUSH1 0x20 SWAP4 SWAP1 SWAP2 ADD SWAP3 DUP4 ADD MSTORE POP PUSH1 0x26 ADD SWAP2 SWAP1 POP JUMP JUMPDEST PUSH32 0x596F75206172652063757272656E746C79206F6E2076657273696F6E20000000 DUP2 MSTORE PUSH1 0x0 DUP6 MLOAD PUSH2 0x13BB DUP2 PUSH1 0x1D DUP6 ADD PUSH1 0x20 DUP11 ADD PUSH2 0x109F JUMP JUMPDEST PUSH1 0x1 PUSH1 0xFD SHL PUSH1 0x1D SWAP2 DUP5 ADD SWAP2 DUP3 ADD MSTORE DUP6 MLOAD PUSH2 0x13DC DUP2 PUSH1 0x1E DUP5 ADD PUSH1 0x20 DUP11 ADD PUSH2 0x109F JUMP JUMPDEST PUSH1 0x1D DUP2 DUP4 ADD ADD SWAP2 POP POP PUSH32 0x2E20546865206E65776573742076657273696F6E2069732076657273696F6E20 PUSH1 0x1 DUP3 ADD MSTORE DUP5 MLOAD PUSH2 0x141E DUP2 PUSH1 0x21 DUP5 ADD PUSH1 0x20 DUP10 ADD PUSH2 0x109F JUMP JUMPDEST PUSH1 0x1 DUP2 DUP4 ADD ADD SWAP2 POP POP PUSH1 0x1 PUSH1 0xFD SHL PUSH1 0x20 DUP3 ADD MSTORE DUP4 MLOAD PUSH2 0x1444 DUP2 PUSH1 0x21 DUP5 ADD PUSH1 0x20 DUP9 ADD PUSH2 0x109F JUMP JUMPDEST PUSH32 0x2E20506C65617365207369676E2074686973206D65737361676520746F20636F PUSH1 0x21 SWAP3 SWAP1 SWAP2 ADD SWAP2 DUP3 ADD MSTORE PUSH18 0x373334B936903A3432903AB833B930B23297 PUSH1 0x71 SHL PUSH1 0x41 DUP3 ADD MSTORE PUSH1 0x53 ADD SWAP7 SWAP6 POP POP POP POP POP POP JUMP JUMPDEST PUSH4 0x4E487B71 PUSH1 0xE0 SHL PUSH1 0x0 MSTORE PUSH1 0x11 PUSH1 0x4 MSTORE PUSH1 0x24 PUSH1 0x0 REVERT JUMPDEST DUP1 DUP3 ADD DUP1 DUP3 GT ISZERO PUSH2 0x6AF JUMPI PUSH2 0x6AF PUSH2 0x1497 JUMP JUMPDEST DUP1 DUP3 MUL DUP2 ISZERO DUP3 DUP3 DIV DUP5 EQ OR PUSH2 0x6AF JUMPI PUSH2 0x6AF PUSH2 0x1497 JUMP JUMPDEST PUSH4 0x4E487B71 PUSH1 0xE0 SHL PUSH1 0x0 MSTORE PUSH1 0x32 PUSH1 0x4 MSTORE PUSH1 0x24 PUSH1 0x0 REVERT JUMPDEST PUSH1 0x1 DUP2 DUP2 SHR SWAP1 DUP3 AND DUP1 PUSH2 0x1501 JUMPI PUSH1 0x7F DUP3 AND SWAP2 POP JUMPDEST PUSH1 0x20 DUP3 LT DUP2 SUB PUSH2 0x1521 JUMPI PUSH4 0x4E487B71 PUSH1 0xE0 SHL PUSH1 0x0 MSTORE PUSH1 0x22 PUSH1 0x4 MSTORE PUSH1 0x24 PUSH1 0x0 REVERT JUMPDEST POP SWAP2 SWAP1 POP JUMP JUMPDEST PUSH4 0x4E487B71 PUSH1 0xE0 SHL PUSH1 0x0 MSTORE PUSH1 0x21 PUSH1 0x4 MSTORE PUSH1 0x24 PUSH1 0x0 REVERT INVALID LOG2 PUSH5 0x6970667358 0x22 SLT KECCAK256 LOG1 0xAF 0xBA 0xB7 0xAD SWAP9 0xF7 0xFB CODESIZE SLOAD DUP13 DUP12 SUB PUSH16 0xBDFC9131369AC07EECD61DA564163218 CALL 0x2F PUSH5 0x736F6C6343 STOP ADDMOD SHR STOP CALLER STATICCALL PUSH2 0x2F21 SWAP1 SWAP5 0xDD 0xA9 SWAP10 0xCF 0x2E 0xE0 0xF 0xB7 0xB9 PUSH31 0xCB31D820FEDBBAECB6AAD712D0CAC2C4000000000000000000000000000000 "},"methodIdentifiers":{"acknowledgeVersion(bytes)":"2d57f1c6","eip712Domain()":"84b0196e","getCurrentVersion()":"fabec44a","getUserAcknowledgedVersion(address)":"67e294b2","getVersionToImplementation(uint256)":"3b70c9a0","implementation()":"5c60da1b","owner()":"8da5cb5b","renounceOwnership()":"715018a6","transferOwnership(address)":"f2fde38b","upgradeTo(address)":"3659cfe6"}}}}}