{"contracts/Implementation.sol":{"ImplementationV2":{"abi":[{"anonymous":false,"inputs":[{"indexed":false,"internalType":"int256","name":"newValue","type":"int256"}],"name":"TotalValueChanged","type":"event"},{"inputs":[{"internalType":"int256","name":"_num1","type":"int256"},{"internalType":"int256","name":"_num2","type":"int256"}],"name":"multiply","outputs":[],"stateMutability":"nonpayable","type":"function"},{"inputs":[{"internalType":"int256","name":"_num1","type":"int256"},{"internalType":"int256","name":"_num2","type":"int256"}],"name":"sum","outputs":[],"stateMutability":"nonpayable","type":"function"},{"inputs":[],"name":"totalValue","outputs":[{"internalType":"int256","name":"","type":"int256"}],"stateMutability":"view","type":"function"}],"evm":{"bytecode":{"linkReferences":{},"object":"6080604052348015600f57600080fd5b506102168061001f6000396000f3fe608060405234801561001057600080fd5b50600436106100415760003560e01c80633c4308a8146100465780639967062d1461005b578063d4c3eea01461006e575b600080fd5b61005961005436600461014a565b610088565b005b61005961006936600461014a565b6100d8565b6100766100e5565b60405190815260200160405180910390f35b61009a6100958284610182565b6100f4565b7fb2c7e32a7456258260ed4df8e5b860d6198099383c94b274021bfd9a6f7ac87a6100c3610120565b60405190815260200160405180910390a15050565b61009a61009582846101b8565b60006100ef610120565b905090565b61011d7f7143077388da7263f151574bb8b431587ba155ce26e1a98a058a9a5b7c458d3b829055565b50565b60006100ef7f7143077388da7263f151574bb8b431587ba155ce26e1a98a058a9a5b7c458d3b5490565b6000806040838503121561015d57600080fd5b50508035926020909101359150565b634e487b7160e01b600052601160045260246000fd5b80820260008212600160ff1b8414161561019e5761019e61016c565b81810583148215176101b2576101b261016c565b92915050565b80820182811260008312801582168215821617156101d8576101d861016c565b50509291505056fea2646970667358221220755a09d408a8ce8274cbada6e89ac5c7c7801708246553321cc77f86003256d664736f6c634300081c0033","opcodes":"PUSH1 0x80 PUSH1 0x40 MSTORE CALLVALUE DUP1 ISZERO PUSH1 0xF JUMPI PUSH1 0x0 DUP1 REVERT JUMPDEST POP PUSH2 0x216 DUP1 PUSH2 0x1F PUSH1 0x0 CODECOPY PUSH1 0x0 RETURN INVALID PUSH1 0x80 PUSH1 0x40 MSTORE CALLVALUE DUP1 ISZERO PUSH2 0x10 JUMPI PUSH1 0x0 DUP1 REVERT JUMPDEST POP PUSH1 0x4 CALLDATASIZE LT PUSH2 0x41 JUMPI PUSH1 0x0 CALLDATALOAD PUSH1 0xE0 SHR DUP1 PUSH4 0x3C4308A8 EQ PUSH2 0x46 JUMPI DUP1 PUSH4 0x9967062D EQ PUSH2 0x5B JUMPI DUP1 PUSH4 0xD4C3EEA0 EQ PUSH2 0x6E JUMPI JUMPDEST PUSH1 0x0 DUP1 REVERT JUMPDEST PUSH2 0x59 PUSH2 0x54 CALLDATASIZE PUSH1 0x4 PUSH2 0x14A JUMP JUMPDEST PUSH2 0x88 JUMP JUMPDEST STOP JUMPDEST PUSH2 0x59 PUSH2 0x69 CALLDATASIZE PUSH1 0x4 PUSH2 0x14A JUMP JUMPDEST PUSH2 0xD8 JUMP JUMPDEST PUSH2 0x76 PUSH2 0xE5 JUMP JUMPDEST PUSH1 0x40 MLOAD SWAP1 DUP2 MSTORE PUSH1 0x20 ADD PUSH1 0x40 MLOAD DUP1 SWAP2 SUB SWAP1 RETURN JUMPDEST PUSH2 0x9A PUSH2 0x95 DUP3 DUP5 PUSH2 0x182 JUMP JUMPDEST PUSH2 0xF4 JUMP JUMPDEST PUSH32 0xB2C7E32A7456258260ED4DF8E5B860D6198099383C94B274021BFD9A6F7AC87A PUSH2 0xC3 PUSH2 0x120 JUMP JUMPDEST PUSH1 0x40 MLOAD SWAP1 DUP2 MSTORE PUSH1 0x20 ADD PUSH1 0x40 MLOAD DUP1 SWAP2 SUB SWAP1 LOG1 POP POP JUMP JUMPDEST PUSH2 0x9A PUSH2 0x95 DUP3 DUP5 PUSH2 0x1B8 JUMP JUMPDEST PUSH1 0x0 PUSH2 0xEF PUSH2 0x120 JUMP JUMPDEST SWAP1 POP SWAP1 JUMP JUMPDEST PUSH2 0x11D PUSH32 0x7143077388DA7263F151574BB8B431587BA155CE26E1A98A058A9A5B7C458D3B DUP3 SWAP1 SSTORE JUMP JUMPDEST POP JUMP JUMPDEST PUSH1 0x0 PUSH2 0xEF PUSH32 0x7143077388DA7263F151574BB8B431587BA155CE26E1A98A058A9A5B7C458D3B SLOAD SWAP1 JUMP JUMPDEST PUSH1 0x0 DUP1 PUSH1 0x40 DUP4 DUP6 SUB SLT ISZERO PUSH2 0x15D JUMPI PUSH1 0x0 DUP1 REVERT JUMPDEST POP POP DUP1 CALLDATALOAD SWAP3 PUSH1 0x20 SWAP1 SWAP2 ADD CALLDATALOAD SWAP2 POP JUMP JUMPDEST PUSH4 0x4E487B71 PUSH1 0xE0 SHL PUSH1 0x0 MSTORE PUSH1 0x11 PUSH1 0x4 MSTORE PUSH1 0x24 PUSH1 0x0 REVERT JUMPDEST DUP1 DUP3 MUL PUSH1 0x0 DUP3 SLT PUSH1 0x1 PUSH1 0xFF SHL DUP5 EQ AND ISZERO PUSH2 0x19E JUMPI PUSH2 0x19E PUSH2 0x16C JUMP JUMPDEST DUP2 DUP2 SDIV DUP4 EQ DUP3 ISZERO OR PUSH2 0x1B2 JUMPI PUSH2 0x1B2 PUSH2 0x16C JUMP JUMPDEST SWAP3 SWAP2 POP POP JUMP JUMPDEST DUP1 DUP3 ADD DUP3 DUP2 SLT PUSH1 0x0 DUP4 SLT DUP1 ISZERO DUP3 AND DUP3 ISZERO DUP3 AND OR ISZERO PUSH2 0x1D8 JUMPI PUSH2 0x1D8 PUSH2 0x16C JUMP JUMPDEST POP POP SWAP3 SWAP2 POP POP JUMP INVALID LOG2 PUSH5 0x6970667358 0x22 SLT KECCAK256 PUSH22 0x5A09D408A8CE8274CBADA6E89AC5C7C7801708246553 ORIGIN SHR 0xC7 PUSH32 0x86003256D664736F6C634300081C003300000000000000000000000000000000 "},"methodIdentifiers":{"multiply(int256,int256)":"3c4308a8","sum(int256,int256)":"9967062d","totalValue()":"d4c3eea0"}}}}}