{
  "_format": "hh-sol-artifact-1",
  "contractName": "MyTransparentProxy",
  "sourceName": "contracts/MyTransparentProxy.sol",
  "abi": [
    {
      "inputs": [
        {
          "internalType": "address",
          "name": "initialImplementation",
          "type": "address"
        },
        {
          "internalType": "string",
          "name": "name",
          "type": "string"
        },
        {
          "internalType": "string",
          "name": "version",
          "type": "string"
        },
        {
          "internalType": "address",
          "name": "owner",
          "type": "address"
        }
      ],
      "stateMutability": "nonpayable",
      "type": "constructor"
    },
    {
      "inputs": [],
      "name": "ECDSAInvalidSignature",
      "type": "error"
    },
    {
      "inputs": [
        {
          "internalType": "uint256",
          "name": "length",
          "type": "uint256"
        }
      ],
      "name": "ECDSAInvalidSignatureLength",
      "type": "error"
    },
    {
      "inputs": [
        {
          "internalType": "bytes32",
          "name": "s",
          "type": "bytes32"
        }
      ],
      "name": "ECDSAInvalidSignatureS",
      "type": "error"
    },
    {
      "inputs": [],
      "name": "InvalidShortString",
      "type": "error"
    },
    {
      "inputs": [
        {
          "internalType": "address",
          "name": "owner",
          "type": "address"
        }
      ],
      "name": "OwnableInvalidOwner",
      "type": "error"
    },
    {
      "inputs": [
        {
          "internalType": "address",
          "name": "account",
          "type": "address"
        }
      ],
      "name": "OwnableUnauthorizedAccount",
      "type": "error"
    },
    {
      "inputs": [
        {
          "internalType": "string",
          "name": "str",
          "type": "string"
        }
      ],
      "name": "StringTooLong",
      "type": "error"
    },
    {
      "anonymous": false,
      "inputs": [],
      "name": "EIP712DomainChanged",
      "type": "event"
    },
    {
      "anonymous": false,
      "inputs": [
        {
          "indexed": true,
          "internalType": "address",
          "name": "previousOwner",
          "type": "address"
        },
        {
          "indexed": true,
          "internalType": "address",
          "name": "newOwner",
          "type": "address"
        }
      ],
      "name": "OwnershipTransferred",
      "type": "event"
    },
    {
      "anonymous": false,
      "inputs": [
        {
          "indexed": true,
          "internalType": "address",
          "name": "newImplementation",
          "type": "address"
        },
        {
          "indexed": false,
          "internalType": "uint256",
          "name": "newVersion",
          "type": "uint256"
        }
      ],
      "name": "Upgraded",
      "type": "event"
    },
    {
      "anonymous": false,
      "inputs": [
        {
          "indexed": true,
          "internalType": "address",
          "name": "user",
          "type": "address"
        },
        {
          "indexed": false,
          "internalType": "uint256",
          "name": "version",
          "type": "uint256"
        }
      ],
      "name": "VersionAcknowledged",
      "type": "event"
    },
    {
      "stateMutability": "payable",
      "type": "fallback"
    },
    {
      "inputs": [
        {
          "internalType": "bytes",
          "name": "signature",
          "type": "bytes"
        }
      ],
      "name": "acknowledgeVersion",
      "outputs": [],
      "stateMutability": "nonpayable",
      "type": "function"
    },
    {
      "inputs": [
        {
          "internalType": "address",
          "name": "implementation",
          "type": "address"
        }
      ],
      "name": "delegate",
      "outputs": [],
      "stateMutability": "nonpayable",
      "type": "function"
    },
    {
      "inputs": [],
      "name": "eip712Domain",
      "outputs": [
        {
          "internalType": "bytes1",
          "name": "fields",
          "type": "bytes1"
        },
        {
          "internalType": "string",
          "name": "name",
          "type": "string"
        },
        {
          "internalType": "string",
          "name": "version",
          "type": "string"
        },
        {
          "internalType": "uint256",
          "name": "chainId",
          "type": "uint256"
        },
        {
          "internalType": "address",
          "name": "verifyingContract",
          "type": "address"
        },
        {
          "internalType": "bytes32",
          "name": "salt",
          "type": "bytes32"
        },
        {
          "internalType": "uint256[]",
          "name": "extensions",
          "type": "uint256[]"
        }
      ],
      "stateMutability": "view",
      "type": "function"
    },
    {
      "inputs": [],
      "name": "getCurrentVersion",
      "outputs": [
        {
          "internalType": "uint256",
          "name": "",
          "type": "uint256"
        }
      ],
      "stateMutability": "view",
      "type": "function"
    },
    {
      "inputs": [
        {
          "internalType": "address",
          "name": "user",
          "type": "address"
        }
      ],
      "name": "getUserAcknowledgedVersion",
      "outputs": [
        {
          "internalType": "uint256",
          "name": "",
          "type": "uint256"
        }
      ],
      "stateMutability": "view",
      "type": "function"
    },
    {
      "inputs": [
        {
          "internalType": "uint256",
          "name": "version",
          "type": "uint256"
        }
      ],
      "name": "getVersionToImplementation",
      "outputs": [
        {
          "internalType": "address",
          "name": "",
          "type": "address"
        }
      ],
      "stateMutability": "view",
      "type": "function"
    },
    {
      "inputs": [],
      "name": "implementation",
      "outputs": [
        {
          "internalType": "address",
          "name": "",
          "type": "address"
        }
      ],
      "stateMutability": "view",
      "type": "function"
    },
    {
      "inputs": [],
      "name": "owner",
      "outputs": [
        {
          "internalType": "address",
          "name": "",
          "type": "address"
        }
      ],
      "stateMutability": "view",
      "type": "function"
    },
    {
      "inputs": [],
      "name": "renounceOwnership",
      "outputs": [],
      "stateMutability": "nonpayable",
      "type": "function"
    },
    {
      "inputs": [
        {
          "internalType": "address",
          "name": "newOwner",
          "type": "address"
        }
      ],
      "name": "transferOwnership",
      "outputs": [],
      "stateMutability": "nonpayable",
      "type": "function"
    },
    {
      "inputs": [
        {
          "internalType": "address",
          "name": "newImplementation",
          "type": "address"
        }
      ],
      "name": "upgradeTo",
      "outputs": [],
      "stateMutability": "nonpayable",
      "type": "function"
    },
    {
      "stateMutability": "payable",
      "type": "receive"
    }
  ],
  "bytecode": "0x61016060405234801561001157600080fd5b5060405161340138038061340183398181016040528101906100339190610809565b8282818184600073ffffffffffffffffffffffffffffffffffffffff168173ffffffffffffffffffffffffffffffffffffffff16036100aa5760006040517f1e4fbdf70000000000000000000000000000000000000000000000000000000081526004016100a191906108b7565b60405180910390fd5b6100b98161018e60201b60201c565b506100ce60018361025260201b90919060201c565b61012081815250506100ea60028261025260201b90919060201c565b6101408181525050818051906020012060e08181525050808051906020012061010081815250504660a081815250506101276102a260201b60201c565b608081815250503073ffffffffffffffffffffffffffffffffffffffff1660c08173ffffffffffffffffffffffffffffffffffffffff1681525050505061017460006102fd60201b60201c565b50506101858461033060201b60201c565b50505050610e2d565b60008060009054906101000a900473ffffffffffffffffffffffffffffffffffffffff169050816000806101000a81548173ffffffffffffffffffffffffffffffffffffffff021916908373ffffffffffffffffffffffffffffffffffffffff1602179055508173ffffffffffffffffffffffffffffffffffffffff168173ffffffffffffffffffffffffffffffffffffffff167f8be0079c531659141344cd1fd0a4f28419497f9722a3daafe3b4186f6b6457e060405160405180910390a35050565b60006020835110156102745761026d8361035060201b60201c565b905061029c565b82610284836103b860201b60201c565b60000190816102939190610af3565b5060ff60001b90505b92915050565b60007f8b73c3c69bb8fe3d512ecc4cf759cc79239f7b179b0ffacaa9a75d522b39400f60e0516101005146306040516020016102e2959493929190610bed565b60405160208183030381529060405280519060200120905090565b61032d7ffa612f219094dda999cf2ee00fb7b97ecb31d820fedbbaecb6aad712d0cac2c4826103c260201b60201c565b50565b61033e6103c960201b60201c565b61034d8161046260201b60201c565b50565b600080829050601f8151111561039d57826040517f305a27a90000000000000000000000000000000000000000000000000000000081526004016103949190610c8a565b60405180910390fd5b8051816103a990610cdc565b60001c1760001b915050919050565b6000819050919050565b8082555050565b6103d761056e60201b60201c565b73ffffffffffffffffffffffffffffffffffffffff166103fb61057660201b60201c565b73ffffffffffffffffffffffffffffffffffffffff16146104605761042461056e60201b60201c565b6040517f118cdaa700000000000000000000000000000000000000000000000000000000815260040161045791906108b7565b60405180910390fd5b565b6104706103c960201b60201c565b600073ffffffffffffffffffffffffffffffffffffffff168173ffffffffffffffffffffffffffffffffffffffff16036104df576040517f08c379a00000000000000000000000000000000000000000000000000000000081526004016104d690610d8f565b60405180910390fd5b600060016104f161059f60201b60201c565b6104fb9190610dde565b905061050c816102fd60201b60201c565b61051c81836105d560201b60201c565b8173ffffffffffffffffffffffffffffffffffffffff167f5887ab9161c3be2fe962b73e068a9f29082efb6daf2bfcbd3f064bc34d1ef1b7826040516105629190610e12565b60405180910390a25050565b600033905090565b60008060009054906101000a900473ffffffffffffffffffffffffffffffffffffffff16905090565b60006105d07ffa612f219094dda999cf2ee00fb7b97ecb31d820fedbbaecb6aad712d0cac2c461062b60201b60201c565b905090565b806004600084815260200190815260200160002060006101000a81548173ffffffffffffffffffffffffffffffffffffffff021916908373ffffffffffffffffffffffffffffffffffffffff1602179055505050565b600081549050919050565b6000604051905090565b600080fd5b600080fd5b600073ffffffffffffffffffffffffffffffffffffffff82169050919050565b60006106758261064a565b9050919050565b6106858161066a565b811461069057600080fd5b50565b6000815190506106a28161067c565b92915050565b600080fd5b600080fd5b6000601f19601f8301169050919050565b7f4e487b7100000000000000000000000000000000000000000000000000000000600052604160045260246000fd5b6106fb826106b2565b810181811067ffffffffffffffff8211171561071a576107196106c3565b5b80604052505050565b600061072d610636565b905061073982826106f2565b919050565b600067ffffffffffffffff821115610759576107586106c3565b5b610762826106b2565b9050602081019050919050565b60005b8381101561078d578082015181840152602081019050610772565b60008484015250505050565b60006107ac6107a78461073e565b610723565b9050828152602081018484840111156107c8576107c76106ad565b5b6107d384828561076f565b509392505050565b600082601f8301126107f0576107ef6106a8565b5b8151610800848260208601610799565b91505092915050565b6000806000806080858703121561082357610822610640565b5b600061083187828801610693565b945050602085015167ffffffffffffffff81111561085257610851610645565b5b61085e878288016107db565b935050604085015167ffffffffffffffff81111561087f5761087e610645565b5b61088b878288016107db565b925050606061089c87828801610693565b91505092959194509250565b6108b18161066a565b82525050565b60006020820190506108cc60008301846108a8565b92915050565b600081519050919050565b7f4e487b7100000000000000000000000000000000000000000000000000000000600052602260045260246000fd5b6000600282049050600182168061092457607f821691505b602082108103610937576109366108dd565b5b50919050565b60008190508160005260206000209050919050565b60006020601f8301049050919050565b600082821b905092915050565b60006008830261099f7fffffffffffffffffffffffffffffffffffffffffffffffffffffffffffffffff82610962565b6109a98683610962565b95508019841693508086168417925050509392505050565b6000819050919050565b6000819050919050565b60006109f06109eb6109e6846109c1565b6109cb565b6109c1565b9050919050565b6000819050919050565b610a0a836109d5565b610a1e610a16826109f7565b84845461096f565b825550505050565b600090565b610a33610a26565b610a3e818484610a01565b505050565b5b81811015610a6257610a57600082610a2b565b600181019050610a44565b5050565b601f821115610aa757610a788161093d565b610a8184610952565b81016020851015610a90578190505b610aa4610a9c85610952565b830182610a43565b50505b505050565b600082821c905092915050565b6000610aca60001984600802610aac565b1980831691505092915050565b6000610ae38383610ab9565b9150826002028217905092915050565b610afc826108d2565b67ffffffffffffffff811115610b1557610b146106c3565b5b610b1f825461090c565b610b2a828285610a66565b600060209050601f831160018114610b5d5760008415610b4b578287015190505b610b558582610ad7565b865550610bbd565b601f198416610b6b8661093d565b60005b82811015610b9357848901518255600182019150602085019450602081019050610b6e565b86831015610bb05784890151610bac601f891682610ab9565b8355505b6001600288020188555050505b505050505050565b6000819050919050565b610bd881610bc5565b82525050565b610be7816109c1565b82525050565b600060a082019050610c026000830188610bcf565b610c0f6020830187610bcf565b610c1c6040830186610bcf565b610c296060830185610bde565b610c3660808301846108a8565b9695505050505050565b600082825260208201905092915050565b6000610c5c826108d2565b610c668185610c40565b9350610c7681856020860161076f565b610c7f816106b2565b840191505092915050565b60006020820190508181036000830152610ca48184610c51565b905092915050565b600081519050919050565b6000819050602082019050919050565b6000610cd38251610bc5565b80915050919050565b6000610ce782610cac565b82610cf184610cb7565b9050610cfc81610cc7565b92506020821015610d3c57610d377fffffffffffffffffffffffffffffffffffffffffffffffffffffffffffffffff83602003600802610962565b831692505b5050919050565b7f496e76616c696420696d706c656d656e746174696f6e20616464726573730000600082015250565b6000610d79601e83610c40565b9150610d8482610d43565b602082019050919050565b60006020820190508181036000830152610da881610d6c565b9050919050565b7f4e487b7100000000000000000000000000000000000000000000000000000000600052601160045260246000fd5b6000610de9826109c1565b9150610df4836109c1565b9250828201905080821115610e0c57610e0b610daf565b5b92915050565b6000602082019050610e276000830184610bde565b92915050565b60805160a05160c05160e05161010051610120516101405161257a610e876000396000610fbf01526000610f840152600061163e0152600061161d015260006112c90152600061131f01526000611348015261257a6000f3fe6080604052600436106100a05760003560e01c806367e294b21161006457806367e294b2146102ea578063715018a61461032757806384b0196e1461033e5780638da5cb5b1461036f578063f2fde38b1461039a578063fabec44a146103c3576100a7565b80632d57f1c6146102075780633659cfe6146102305780633b70c9a0146102595780635c19a95c146102965780635c60da1b146102bf576100a7565b366100a757005b6100af6103ee565b73ffffffffffffffffffffffffffffffffffffffff163373ffffffffffffffffffffffffffffffffffffffff160361011c576040517f08c379a00000000000000000000000000000000000000000000000000000000081526004016101139061182f565b60405180910390fd5b6000610126610417565b905080600360003373ffffffffffffffffffffffffffffffffffffffff1673ffffffffffffffffffffffffffffffffffffffff16815260200190815260200160002054146101f5576000610178610447565b60405160200161018891906118c0565b6040516020818303038152906040529050806040516020016101aa9190611949565b6040516020818303038152906040526040517f08c379a00000000000000000000000000000000000000000000000000000000081526004016101ec91906119b5565b60405180910390fd5b6102056102006105b8565b6105cf565b005b34801561021357600080fd5b5061022e60048036038101906102299190611b20565b6105f5565b005b34801561023c57600080fd5b5061025760048036038101906102529190611bc7565b61076a565b005b34801561026557600080fd5b50610280600480360381019061027b9190611c2a565b61077e565b60405161028d9190611c66565b60405180910390f35b3480156102a257600080fd5b506102bd60048036038101906102b89190611bc7565b610790565b005b3480156102cb57600080fd5b506102d461079c565b6040516102e19190611c66565b60405180910390f35b3480156102f657600080fd5b50610311600480360381019061030c9190611bc7565b6107ab565b60405161031e9190611c90565b60405180910390f35b34801561033357600080fd5b5061033c6107bd565b005b34801561034a57600080fd5b506103536107d1565b6040516103669796959493929190611dbd565b60405180910390f35b34801561037b57600080fd5b506103846103ee565b6040516103919190611c66565b60405180910390f35b3480156103a657600080fd5b506103c160048036038101906103bc9190611bc7565b61087b565b005b3480156103cf57600080fd5b506103d8610901565b6040516103e59190611c90565b60405180910390f35b60008060009054906101000a900473ffffffffffffffffffffffffffffffffffffffff16905090565b60006104427ffa612f219094dda999cf2ee00fb7b97ecb31d820fedbbaecb6aad712d0cac2c4610910565b905090565b606060006104ba610496600360003373ffffffffffffffffffffffffffffffffffffffff1673ffffffffffffffffffffffffffffffffffffffff1681526020019081526020016000205461091b565b6040516020016104a69190611e89565b604051602081830303815290604052610958565b6040516020016104ca9190611f3c565b604051602081830303815290604052905060006105146104f06104eb610417565b61091b565b6040516020016105009190611e89565b604051602081830303815290604052610958565b6040516020016105249190611f3c565b604051602081830303815290604052905061057d600360003373ffffffffffffffffffffffffffffffffffffffff1673ffffffffffffffffffffffffffffffffffffffff16815260200190815260200160002054610b6c565b8261058e610589610417565b610b6c565b836040516020016105a294939291906120bf565b6040516020818303038152906040529250505090565b60006105ca6105c5610417565b61091b565b905090565b3660008037600080366000845af43d6000803e80600081146105f0573d6000f35b3d6000fd5b60006105ff610417565b905080600360003373ffffffffffffffffffffffffffffffffffffffff1673ffffffffffffffffffffffffffffffffffffffff1681526020019081526020016000205410610682576040517f08c379a0000000000000000000000000000000000000000000000000000000008152600401610679906121a6565b60405180910390fd5b610695338261068f610447565b85610c3a565b6106d4576040517f08c379a00000000000000000000000000000000000000000000000000000000081526004016106cb90612212565b60405180910390fd5b80600360003373ffffffffffffffffffffffffffffffffffffffff1673ffffffffffffffffffffffffffffffffffffffff168152602001908152602001600020819055503373ffffffffffffffffffffffffffffffffffffffff167fb2750fb49563752ac33e16422b7de9722a51607e258f2fd22fb0c55a8804d8fa8260405161075e9190611c90565b60405180910390a25050565b610772610cf3565b61077b81610d7a565b50565b60006107898261091b565b9050919050565b610799816105cf565b50565b60006107a66105b8565b905090565b60006107b682610e6e565b9050919050565b6107c5610cf3565b6107cf6000610eb7565b565b6000606080600080600060606107e5610f7b565b6107ed610fb6565b46306000801b600067ffffffffffffffff81111561080e5761080d6119f5565b5b60405190808252806020026020018201604052801561083c5781602001602082028036833780820191505090505b507f0f00000000000000000000000000000000000000000000000000000000000000959493929190965096509650965096509650965090919293949596565b610883610cf3565b600073ffffffffffffffffffffffffffffffffffffffff168173ffffffffffffffffffffffffffffffffffffffff16036108f55760006040517f1e4fbdf70000000000000000000000000000000000000000000000000000000081526004016108ec9190611c66565b60405180910390fd5b6108fe81610eb7565b50565b600061090b610417565b905090565b600081549050919050565b60006004600083815260200190815260200160002060009054906101000a900473ffffffffffffffffffffffffffffffffffffffff169050919050565b606060006040518060400160405280601081526020017f303132333435363738396162636465660000000000000000000000000000000081525090506000600284516109a49190612261565b67ffffffffffffffff8111156109bd576109bc6119f5565b5b6040519080825280601f01601f1916602001820160405280156109ef5781602001600182028036833780820191505090505b50905060005b8451811015610b6157826004868381518110610a1457610a136122a3565b5b602001015160f81c60f81b7effffffffffffffffffffffffffffffffffffffffffffffffffffffffffffff1916901c60f81c60ff1681518110610a5a57610a596122a3565b5b602001015160f81c60f81b82600283610a739190612261565b81518110610a8457610a836122a3565b5b60200101907effffffffffffffffffffffffffffffffffffffffffffffffffffffffffffff1916908160001a90535082600f60f81b868381518110610acc57610acb6122a3565b5b602001015160f81c60f81b1660f81c60ff1681518110610aef57610aee6122a3565b5b602001015160f81c60f81b826001600284610b0a9190612261565b610b1491906122d2565b81518110610b2557610b246122a3565b5b60200101907effffffffffffffffffffffffffffffffffffffffffffffffffffffffffffff1916908160001a90535080806001019150506109f5565b508092505050919050565b606060006001610b7b84610ff1565b01905060008167ffffffffffffffff811115610b9a57610b996119f5565b5b6040519080825280601f01601f191660200182016040528015610bcc5781602001600182028036833780820191505090505b509050600082602001820190505b600115610c2f578080600190039150507f3031323334353637383961626364656600000000000000000000000000000000600a86061a8153600a8581610c2357610c22612306565b5b04945060008503610bda575b819350505050919050565b6000807feacf654f9eb57c0fc9b51c946d3609e17608874f75f50d3caac0e72f3cac96c886868680519060200120604051602001610c7b9493929190612335565b6040516020818303038152906040528051906020012090506000610c9e82611144565b90506000610cb5858361115e90919063ffffffff16565b90508773ffffffffffffffffffffffffffffffffffffffff168173ffffffffffffffffffffffffffffffffffffffff16149350505050949350505050565b610cfb61118a565b73ffffffffffffffffffffffffffffffffffffffff16610d196103ee565b73ffffffffffffffffffffffffffffffffffffffff1614610d7857610d3c61118a565b6040517f118cdaa7000000000000000000000000000000000000000000000000000000008152600401610d6f9190611c66565b60405180910390fd5b565b610d82610cf3565b600073ffffffffffffffffffffffffffffffffffffffff168173ffffffffffffffffffffffffffffffffffffffff1603610df1576040517f08c379a0000000000000000000000000000000000000000000000000000000008152600401610de8906123c6565b60405180910390fd5b60006001610dfd610417565b610e0791906122d2565b9050610e1281611192565b610e1c81836111bf565b8173ffffffffffffffffffffffffffffffffffffffff167f5887ab9161c3be2fe962b73e068a9f29082efb6daf2bfcbd3f064bc34d1ef1b782604051610e629190611c90565b60405180910390a25050565b6000600360008373ffffffffffffffffffffffffffffffffffffffff1673ffffffffffffffffffffffffffffffffffffffff168152602001908152602001600020549050919050565b60008060009054906101000a900473ffffffffffffffffffffffffffffffffffffffff169050816000806101000a81548173ffffffffffffffffffffffffffffffffffffffff021916908373ffffffffffffffffffffffffffffffffffffffff1602179055508173ffffffffffffffffffffffffffffffffffffffff168173ffffffffffffffffffffffffffffffffffffffff167f8be0079c531659141344cd1fd0a4f28419497f9722a3daafe3b4186f6b6457e060405160405180910390a35050565b6060610fb160017f000000000000000000000000000000000000000000000000000000000000000061121590919063ffffffff16565b905090565b6060610fec60027f000000000000000000000000000000000000000000000000000000000000000061121590919063ffffffff16565b905090565b600080600090507a184f03e93ff9f4daa797ed6e38ed64bf6a1f010000000000000000831061104f577a184f03e93ff9f4daa797ed6e38ed64bf6a1f010000000000000000838161104557611044612306565b5b0492506040810190505b6d04ee2d6d415b85acef8100000000831061108c576d04ee2d6d415b85acef8100000000838161108257611081612306565b5b0492506020810190505b662386f26fc1000083106110bb57662386f26fc1000083816110b1576110b0612306565b5b0492506010810190505b6305f5e10083106110e4576305f5e10083816110da576110d9612306565b5b0492506008810190505b61271083106111095761271083816110ff576110fe612306565b5b0492506004810190505b6064831061112c576064838161112257611121612306565b5b0492506002810190505b600a831061113b576001810190505b80915050919050565b60006111576111516112c5565b8361137c565b9050919050565b60008060008061116e86866113bd565b92509250925061117e8282611419565b82935050505092915050565b600033905090565b6111bc7ffa612f219094dda999cf2ee00fb7b97ecb31d820fedbbaecb6aad712d0cac2c48261157d565b50565b806004600084815260200190815260200160002060006101000a81548173ffffffffffffffffffffffffffffffffffffffff021916908373ffffffffffffffffffffffffffffffffffffffff1602179055505050565b606060ff60001b83146112325761122b83611584565b90506112bf565b81805461123e90612415565b80601f016020809104026020016040519081016040528092919081815260200182805461126a90612415565b80156112b75780601f1061128c576101008083540402835291602001916112b7565b820191906000526020600020905b81548152906001019060200180831161129a57829003601f168201915b505050505090505b92915050565b60007f000000000000000000000000000000000000000000000000000000000000000073ffffffffffffffffffffffffffffffffffffffff163073ffffffffffffffffffffffffffffffffffffffff1614801561134157507f000000000000000000000000000000000000000000000000000000000000000046145b1561136e577f00000000000000000000000000000000000000000000000000000000000000009050611379565b6113766115f8565b90505b90565b60006040517f190100000000000000000000000000000000000000000000000000000000000081528360028201528260228201526042812091505092915050565b600080600060418451036114025760008060006020870151925060408701519150606087015160001a90506113f48882858561168e565b955095509550505050611412565b60006002855160001b9250925092505b9250925092565b6000600381111561142d5761142c612446565b5b8260038111156114405761143f612446565b5b0315611579576001600381111561145a57611459612446565b5b82600381111561146d5761146c612446565b5b036114a4576040517ff645eedf00000000000000000000000000000000000000000000000000000000815260040160405180910390fd5b600260038111156114b8576114b7612446565b5b8260038111156114cb576114ca612446565b5b03611510578060001c6040517ffce698f70000000000000000000000000000000000000000000000000000000081526004016115079190611c90565b60405180910390fd5b60038081111561152357611522612446565b5b82600381111561153657611535612446565b5b0361157857806040517fd78bce0c00000000000000000000000000000000000000000000000000000000815260040161156f9190612475565b60405180910390fd5b5b5050565b8082555050565b6060600061159183611782565b90506000602067ffffffffffffffff8111156115b0576115af6119f5565b5b6040519080825280601f01601f1916602001820160405280156115e25781602001600182028036833780820191505090505b5090508181528360208201528092505050919050565b60007f8b73c3c69bb8fe3d512ecc4cf759cc79239f7b179b0ffacaa9a75d522b39400f7f00000000000000000000000000000000000000000000000000000000000000007f00000000000000000000000000000000000000000000000000000000000000004630604051602001611673959493929190612490565b60405160208183030381529060405280519060200120905090565b60008060007f7fffffffffffffffffffffffffffffff5d576e7357a4501ddfe92f46681b20a08460001c11156116ce576000600385925092509250611778565b6000600188888888604051600081526020016040526040516116f394939291906124ff565b6020604051602081039080840390855afa158015611715573d6000803e3d6000fd5b505050602060405103519050600073ffffffffffffffffffffffffffffffffffffffff168173ffffffffffffffffffffffffffffffffffffffff160361176957600060016000801b93509350935050611778565b8060008060001b935093509350505b9450945094915050565b60008060ff8360001c169050601f8111156117c9576040517fb3512b0c00000000000000000000000000000000000000000000000000000000815260040160405180910390fd5b80915050919050565b600082825260208201905092915050565b7f4f776e65722063616e6e6f742063616c6c20746869732066756e6374696f6e00600082015250565b6000611819601f836117d2565b9150611824826117e3565b602082019050919050565b600060208201905081810360008301526118488161180c565b9050919050565b600081519050919050565b600081905092915050565b60005b83811015611883578082015181840152602081019050611868565b60008484015250505050565b600061189a8261184f565b6118a4818561185a565b93506118b4818560208601611865565b80840191505092915050565b60006118cc828461188f565b915081905092915050565b7f4552524f525f434f44455f313a20506c656173652061636b6e6f776c6564676560008201527f20746865206e65772076657273696f6e21200000000000000000000000000000602082015250565b600061193360328361185a565b915061193e826118d7565b603282019050919050565b600061195482611926565b9150611960828461188f565b915081905092915050565b6000601f19601f8301169050919050565b60006119878261184f565b61199181856117d2565b93506119a1818560208601611865565b6119aa8161196b565b840191505092915050565b600060208201905081810360008301526119cf818461197c565b905092915050565b6000604051905090565b600080fd5b600080fd5b600080fd5b600080fd5b7f4e487b7100000000000000000000000000000000000000000000000000000000600052604160045260246000fd5b611a2d8261196b565b810181811067ffffffffffffffff82111715611a4c57611a4b6119f5565b5b80604052505050565b6000611a5f6119d7565b9050611a6b8282611a24565b919050565b600067ffffffffffffffff821115611a8b57611a8a6119f5565b5b611a948261196b565b9050602081019050919050565b82818337600083830152505050565b6000611ac3611abe84611a70565b611a55565b905082815260208101848484011115611adf57611ade6119f0565b5b611aea848285611aa1565b509392505050565b600082601f830112611b0757611b066119eb565b5b8135611b17848260208601611ab0565b91505092915050565b600060208284031215611b3657611b356119e1565b5b600082013567ffffffffffffffff811115611b5457611b536119e6565b5b611b6084828501611af2565b91505092915050565b600073ffffffffffffffffffffffffffffffffffffffff82169050919050565b6000611b9482611b69565b9050919050565b611ba481611b89565b8114611baf57600080fd5b50565b600081359050611bc181611b9b565b92915050565b600060208284031215611bdd57611bdc6119e1565b5b6000611beb84828501611bb2565b91505092915050565b6000819050919050565b611c0781611bf4565b8114611c1257600080fd5b50565b600081359050611c2481611bfe565b92915050565b600060208284031215611c4057611c3f6119e1565b5b6000611c4e84828501611c15565b91505092915050565b611c6081611b89565b82525050565b6000602082019050611c7b6000830184611c57565b92915050565b611c8a81611bf4565b82525050565b6000602082019050611ca56000830184611c81565b92915050565b60007fff0000000000000000000000000000000000000000000000000000000000000082169050919050565b611ce081611cab565b82525050565b6000819050919050565b611cf981611ce6565b82525050565b600081519050919050565b600082825260208201905092915050565b6000819050602082019050919050565b611d3481611bf4565b82525050565b6000611d468383611d2b565b60208301905092915050565b6000602082019050919050565b6000611d6a82611cff565b611d748185611d0a565b9350611d7f83611d1b565b8060005b83811015611db0578151611d978882611d3a565b9750611da283611d52565b925050600181019050611d83565b5085935050505092915050565b600060e082019050611dd2600083018a611cd7565b8181036020830152611de4818961197c565b90508181036040830152611df8818861197c565b9050611e076060830187611c81565b611e146080830186611c57565b611e2160a0830185611cf0565b81810360c0830152611e338184611d5f565b905098975050505050505050565b60008160601b9050919050565b6000611e5982611e41565b9050919050565b6000611e6b82611e4e565b9050919050565b611e83611e7e82611b89565b611e60565b82525050565b6000611e958284611e72565b60148201915081905092915050565b7f2868747470733a2f2f65746865727363616e2e696f2f616464726573732f3078600082015250565b6000611eda60208361185a565b9150611ee582611ea4565b602082019050919050565b7f23636f6465290000000000000000000000000000000000000000000000000000600082015250565b6000611f2660068361185a565b9150611f3182611ef0565b600682019050919050565b6000611f4782611ecd565b9150611f53828461188f565b9150611f5e82611f19565b915081905092915050565b7f596f75206172652063757272656e746c79206f6e2076657273696f6e20000000600082015250565b6000611f9f601d8361185a565b9150611faa82611f69565b601d82019050919050565b7f2000000000000000000000000000000000000000000000000000000000000000600082015250565b6000611feb60018361185a565b9150611ff682611fb5565b600182019050919050565b7f2e20546865206e65776573742076657273696f6e2069732076657273696f6e20600082015250565b600061203760208361185a565b915061204282612001565b602082019050919050565b7f2e20506c65617365207369676e2074686973206d65737361676520746f20636f60008201527f6e6669726d2074686520757067726164652e0000000000000000000000000000602082015250565b60006120a960328361185a565b91506120b48261204d565b603282019050919050565b60006120ca82611f92565b91506120d6828761188f565b91506120e182611fde565b91506120ed828661188f565b91506120f88261202a565b9150612104828561188f565b915061210f82611fde565b915061211b828461188f565b91506121268261209c565b915081905095945050505050565b7f416c72656164792061636b6e6f776c6564676564207468652063757272656e7460008201527f2076657273696f6e2e0000000000000000000000000000000000000000000000602082015250565b60006121906029836117d2565b915061219b82612134565b604082019050919050565b600060208201905081810360008301526121bf81612183565b9050919050565b7f496e76616c69642061636b6e6f776c6564676d656e7400000000000000000000600082015250565b60006121fc6016836117d2565b9150612207826121c6565b602082019050919050565b6000602082019050818103600083015261222b816121ef565b9050919050565b7f4e487b7100000000000000000000000000000000000000000000000000000000600052601160045260246000fd5b600061226c82611bf4565b915061227783611bf4565b925082820261228581611bf4565b9150828204841483151761229c5761229b612232565b5b5092915050565b7f4e487b7100000000000000000000000000000000000000000000000000000000600052603260045260246000fd5b60006122dd82611bf4565b91506122e883611bf4565b9250828201905080821115612300576122ff612232565b5b92915050565b7f4e487b7100000000000000000000000000000000000000000000000000000000600052601260045260246000fd5b600060808201905061234a6000830187611cf0565b6123576020830186611c57565b6123646040830185611c81565b6123716060830184611cf0565b95945050505050565b7f496e76616c696420696d706c656d656e746174696f6e20616464726573730000600082015250565b60006123b0601e836117d2565b91506123bb8261237a565b602082019050919050565b600060208201905081810360008301526123df816123a3565b9050919050565b7f4e487b7100000000000000000000000000000000000000000000000000000000600052602260045260246000fd5b6000600282049050600182168061242d57607f821691505b6020821081036124405761243f6123e6565b5b50919050565b7f4e487b7100000000000000000000000000000000000000000000000000000000600052602160045260246000fd5b600060208201905061248a6000830184611cf0565b92915050565b600060a0820190506124a56000830188611cf0565b6124b26020830187611cf0565b6124bf6040830186611cf0565b6124cc6060830185611c81565b6124d96080830184611c57565b9695505050505050565b600060ff82169050919050565b6124f9816124e3565b82525050565b60006080820190506125146000830187611cf0565b61252160208301866124f0565b61252e6040830185611cf0565b61253b6060830184611cf0565b9594505050505056fea26469706673582212205267fcb7ca1af7762f347d65f30edc6c4801b4752a1a82f006737e964eb1970964736f6c634300081c0033",
  "linkReferences": {},
  "deployedLinkReferences": {}
}