{
  "_format": "hh-sol-artifact-1",
  "contractName": "ImplementationV2",
  "sourceName": "contracts/Implementation.sol",
  "abi": [
    {
      "anonymous": false,
      "inputs": [
        {
          "indexed": false,
          "internalType": "int256",
          "name": "newValue",
          "type": "int256"
        }
      ],
      "name": "TotalValueChanged",
      "type": "event"
    },
    {
      "inputs": [
        {
          "internalType": "int256",
          "name": "_num1",
          "type": "int256"
        },
        {
          "internalType": "int256",
          "name": "_num2",
          "type": "int256"
        }
      ],
      "name": "multiply",
      "outputs": [],
      "stateMutability": "nonpayable",
      "type": "function"
    },
    {
      "inputs": [
        {
          "internalType": "int256",
          "name": "_num1",
          "type": "int256"
        },
        {
          "internalType": "int256",
          "name": "_num2",
          "type": "int256"
        }
      ],
      "name": "sum",
      "outputs": [],
      "stateMutability": "nonpayable",
      "type": "function"
    },
    {
      "inputs": [],
      "name": "totalValue",
      "outputs": [
        {
          "internalType": "int256",
          "name": "",
          "type": "int256"
        }
      ],
      "stateMutability": "view",
      "type": "function"
    }
  ],
  "bytecode": "0x6080604052348015600f57600080fd5b5061038c8061001f6000396000f3fe608060405234801561001057600080fd5b50600436106100415760003560e01c80633c4308a8146100465780639967062d14610062578063d4c3eea01461007e575b600080fd5b610060600480360381019061005b9190610201565b61009c565b005b61007c60048036038101906100779190610201565b6100f2565b005b610086610148565b6040516100939190610250565b60405180910390f35b6100b081836100ab919061029a565b610157565b7fb2c7e32a7456258260ed4df8e5b860d6198099383c94b274021bfd9a6f7ac87a6100d9610184565b6040516100e69190610250565b60405180910390a15050565b61010681836101019190610312565b610157565b7fb2c7e32a7456258260ed4df8e5b860d6198099383c94b274021bfd9a6f7ac87a61012f610184565b60405161013c9190610250565b60405180910390a15050565b6000610152610184565b905090565b6101817f7143077388da7263f151574bb8b431587ba155ce26e1a98a058a9a5b7c458d3b826101b4565b50565b60006101af7f7143077388da7263f151574bb8b431587ba155ce26e1a98a058a9a5b7c458d3b6101bb565b905090565b8082555050565b600081549050919050565b600080fd5b6000819050919050565b6101de816101cb565b81146101e957600080fd5b50565b6000813590506101fb816101d5565b92915050565b60008060408385031215610218576102176101c6565b5b6000610226858286016101ec565b9250506020610237858286016101ec565b9150509250929050565b61024a816101cb565b82525050565b60006020820190506102656000830184610241565b92915050565b7f4e487b7100000000000000000000000000000000000000000000000000000000600052601160045260246000fd5b60006102a5826101cb565b91506102b0836101cb565b92508282026102be816101cb565b91507f800000000000000000000000000000000000000000000000000000000000000084146000841216156102f6576102f561026b565b5b828205841483151761030b5761030a61026b565b5b5092915050565b600061031d826101cb565b9150610328836101cb565b9250828201905082811215600083121683821260008412151617156103505761034f61026b565b5b9291505056fea26469706673582212208f56df918091080a8a4c95940eb4f5f2341927face330c12b938e937276b859964736f6c634300081c0033",
  "linkReferences": {},
  "deployedLinkReferences": {}
}