{
  "_format": "hh-sol-artifact-1",
  "contractName": "ImplementationV3",
  "sourceName": "contracts/Implementation.sol",
  "abi": [
    {
      "anonymous": false,
      "inputs": [
        {
          "indexed": false,
          "internalType": "int256",
          "name": "newValue",
          "type": "int256"
        }
      ],
      "name": "TotalValueChanged",
      "type": "event"
    },
    {
      "inputs": [
        {
          "internalType": "int256",
          "name": "_num1",
          "type": "int256"
        },
        {
          "internalType": "int256",
          "name": "_num2",
          "type": "int256"
        }
      ],
      "name": "multiply",
      "outputs": [],
      "stateMutability": "nonpayable",
      "type": "function"
    },
    {
      "inputs": [
        {
          "internalType": "int256",
          "name": "_num1",
          "type": "int256"
        },
        {
          "internalType": "int256",
          "name": "_num2",
          "type": "int256"
        }
      ],
      "name": "subtract",
      "outputs": [],
      "stateMutability": "nonpayable",
      "type": "function"
    },
    {
      "inputs": [
        {
          "internalType": "int256",
          "name": "_num1",
          "type": "int256"
        },
        {
          "internalType": "int256",
          "name": "_num2",
          "type": "int256"
        }
      ],
      "name": "sum",
      "outputs": [],
      "stateMutability": "nonpayable",
      "type": "function"
    },
    {
      "inputs": [],
      "name": "totalValue",
      "outputs": [
        {
          "internalType": "int256",
          "name": "",
          "type": "int256"
        }
      ],
      "stateMutability": "view",
      "type": "function"
    }
  ],
  "bytecode": "0x6080604052348015600f57600080fd5b5061044c8061001f6000396000f3fe608060405234801561001057600080fd5b506004361061004c5760003560e01c80633c4308a8146100515780639967062d1461006d578063b93ea81214610089578063d4c3eea0146100a5575b600080fd5b61006b6004803603810190610066919061027e565b6100c3565b005b6100876004803603810190610082919061027e565b610119565b005b6100a3600480360381019061009e919061027e565b61016f565b005b6100ad6101c5565b6040516100ba91906102cd565b60405180910390f35b6100d781836100d29190610317565b6101d4565b7fb2c7e32a7456258260ed4df8e5b860d6198099383c94b274021bfd9a6f7ac87a610100610201565b60405161010d91906102cd565b60405180910390a15050565b61012d8183610128919061038f565b6101d4565b7fb2c7e32a7456258260ed4df8e5b860d6198099383c94b274021bfd9a6f7ac87a610156610201565b60405161016391906102cd565b60405180910390a15050565b610183818361017e91906103d3565b6101d4565b7fb2c7e32a7456258260ed4df8e5b860d6198099383c94b274021bfd9a6f7ac87a6101ac610201565b6040516101b991906102cd565b60405180910390a15050565b60006101cf610201565b905090565b6101fe7f7143077388da7263f151574bb8b431587ba155ce26e1a98a058a9a5b7c458d3b82610231565b50565b600061022c7f7143077388da7263f151574bb8b431587ba155ce26e1a98a058a9a5b7c458d3b610238565b905090565b8082555050565b600081549050919050565b600080fd5b6000819050919050565b61025b81610248565b811461026657600080fd5b50565b60008135905061027881610252565b92915050565b6000806040838503121561029557610294610243565b5b60006102a385828601610269565b92505060206102b485828601610269565b9150509250929050565b6102c781610248565b82525050565b60006020820190506102e260008301846102be565b92915050565b7f4e487b7100000000000000000000000000000000000000000000000000000000600052601160045260246000fd5b600061032282610248565b915061032d83610248565b925082820261033b81610248565b91507f80000000000000000000000000000000000000000000000000000000000000008414600084121615610373576103726102e8565b5b8282058414831517610388576103876102e8565b5b5092915050565b600061039a82610248565b91506103a583610248565b9250828201905082811215600083121683821260008412151617156103cd576103cc6102e8565b5b92915050565b60006103de82610248565b91506103e983610248565b92508282039050818112600084121682821360008512151617156104105761040f6102e8565b5b9291505056fea2646970667358221220d18d24d2336435ca1d9a4e8705d69dd61dbf309cadf56156b310b498935e37c164736f6c634300081c0033",
  "linkReferences": {},
  "deployedLinkReferences": {}
}