{
  "_format": "hh-sol-artifact-1",
  "contractName": "ImplementationV3",
  "sourceName": "contracts/Implementation.sol",
  "abi": [
    {
      "anonymous": false,
      "inputs": [
        {
          "indexed": false,
          "internalType": "int256",
          "name": "newValue",
          "type": "int256"
        }
      ],
      "name": "TotalValueChanged",
      "type": "event"
    },
    {
      "inputs": [
        {
          "internalType": "bytes",
          "name": "signature",
          "type": "bytes"
        }
      ],
      "name": "acknowledgeVersion",
      "outputs": [],
      "stateMutability": "nonpayable",
      "type": "function"
    },
    {
      "inputs": [
        {
          "internalType": "int256",
          "name": "_num1",
          "type": "int256"
        },
        {
          "internalType": "int256",
          "name": "_num2",
          "type": "int256"
        }
      ],
      "name": "multiply",
      "outputs": [],
      "stateMutability": "nonpayable",
      "type": "function"
    },
    {
      "inputs": [
        {
          "internalType": "int256",
          "name": "_num1",
          "type": "int256"
        },
        {
          "internalType": "int256",
          "name": "_num2",
          "type": "int256"
        }
      ],
      "name": "subtract",
      "outputs": [],
      "stateMutability": "nonpayable",
      "type": "function"
    },
    {
      "inputs": [
        {
          "internalType": "int256",
          "name": "_num1",
          "type": "int256"
        },
        {
          "internalType": "int256",
          "name": "_num2",
          "type": "int256"
        }
      ],
      "name": "sum",
      "outputs": [],
      "stateMutability": "nonpayable",
      "type": "function"
    },
    {
      "inputs": [],
      "name": "totalValue",
      "outputs": [
        {
          "internalType": "int256",
          "name": "",
          "type": "int256"
        }
      ],
      "stateMutability": "view",
      "type": "function"
    }
  ],
  "bytecode": "0x6080604052348015600f57600080fd5b5061065e8061001f6000396000f3fe608060405234801561001057600080fd5b50600436106100575760003560e01c80632d57f1c61461005c5780633c4308a8146100785780639967062d14610094578063b93ea812146100b0578063d4c3eea0146100cc575b600080fd5b61007660048036038101906100719190610411565b6100ea565b005b610092600480360381019061008d9190610490565b610137565b005b6100ae60048036038101906100a99190610490565b61018d565b005b6100ca60048036038101906100c59190610490565b6101e3565b005b6100d4610239565b6040516100e191906104df565b60405180910390f35b6100f66298967f610248565b7fb2c7e32a7456258260ed4df8e5b860d6198099383c94b274021bfd9a6f7ac87a61011f610275565b60405161012c91906104df565b60405180910390a150565b61014b81836101469190610529565b610248565b7fb2c7e32a7456258260ed4df8e5b860d6198099383c94b274021bfd9a6f7ac87a610174610275565b60405161018191906104df565b60405180910390a15050565b6101a1818361019c91906105a1565b610248565b7fb2c7e32a7456258260ed4df8e5b860d6198099383c94b274021bfd9a6f7ac87a6101ca610275565b6040516101d791906104df565b60405180910390a15050565b6101f781836101f291906105e5565b610248565b7fb2c7e32a7456258260ed4df8e5b860d6198099383c94b274021bfd9a6f7ac87a610220610275565b60405161022d91906104df565b60405180910390a15050565b6000610243610275565b905090565b6102727f7143077388da7263f151574bb8b431587ba155ce26e1a98a058a9a5b7c458d3b826102a5565b50565b60006102a07f7143077388da7263f151574bb8b431587ba155ce26e1a98a058a9a5b7c458d3b6102ac565b905090565b8082555050565b600081549050919050565b6000604051905090565b600080fd5b600080fd5b600080fd5b600080fd5b6000601f19601f8301169050919050565b7f4e487b7100000000000000000000000000000000000000000000000000000000600052604160045260246000fd5b61031e826102d5565b810181811067ffffffffffffffff8211171561033d5761033c6102e6565b5b80604052505050565b60006103506102b7565b905061035c8282610315565b919050565b600067ffffffffffffffff82111561037c5761037b6102e6565b5b610385826102d5565b9050602081019050919050565b82818337600083830152505050565b60006103b46103af84610361565b610346565b9050828152602081018484840111156103d0576103cf6102d0565b5b6103db848285610392565b509392505050565b600082601f8301126103f8576103f76102cb565b5b81356104088482602086016103a1565b91505092915050565b600060208284031215610427576104266102c1565b5b600082013567ffffffffffffffff811115610445576104446102c6565b5b610451848285016103e3565b91505092915050565b6000819050919050565b61046d8161045a565b811461047857600080fd5b50565b60008135905061048a81610464565b92915050565b600080604083850312156104a7576104a66102c1565b5b60006104b58582860161047b565b92505060206104c68582860161047b565b9150509250929050565b6104d98161045a565b82525050565b60006020820190506104f460008301846104d0565b92915050565b7f4e487b7100000000000000000000000000000000000000000000000000000000600052601160045260246000fd5b60006105348261045a565b915061053f8361045a565b925082820261054d8161045a565b91507f80000000000000000000000000000000000000000000000000000000000000008414600084121615610585576105846104fa565b5b828205841483151761059a576105996104fa565b5b5092915050565b60006105ac8261045a565b91506105b78361045a565b9250828201905082811215600083121683821260008412151617156105df576105de6104fa565b5b92915050565b60006105f08261045a565b91506105fb8361045a565b9250828203905081811260008412168282136000851215161715610622576106216104fa565b5b9291505056fea2646970667358221220cd358d5d8e88d383832e75b106133c67650d698a7fddab23a5a6417ad7d8771264736f6c634300081c0033",
  "linkReferences": {},
  "deployedLinkReferences": {}
}